{
	"data": {
		"bytecode": {
			"linkReferences": {},
			"object": "608060405234801561001057600080fd5b5033600260036101000a81548173ffffffffffffffffffffffffffffffffffffffff021916908373ffffffffffffffffffffffffffffffffffffffff16021790555060008060007f756e6b6e6f776e00000000000000000000000000000000000000000000000000815260200190815260200160002060006101000a81548160ff021916908360ff16021790555060016000807f676f6f6400000000000000000000000000000000000000000000000000000000815260200190815260200160002060006101000a81548160ff021916908360ff16021790555060026000807f7265766f6b656400000000000000000000000000000000000000000000000000815260200190815260200160002060006101000a81548160ff021916908360ff160217905550610627806101456000396000f3fe608060405234801561001057600080fd5b506004361061007d5760003560e01c80632d9a18b01161005b5780632d9a18b01461012c5780634efa638a146101b457806388d8840b146101d7578063bdebae90146102515761007d565b80632377bc7f14610082578063261fa31e146100c657806328a7ea3b1461010b575b600080fd5b6100ae6004803603602081101561009857600080fd5b8101908080359060200190929190505050610353565b60405180821515815260200191505060405180910390f35b6100f2600480360360208110156100dc57600080fd5b8101908080359060200190929190505050610373565b604051808260ff16815260200191505060405180910390f35b610113610393565b604051808260ff16815260200191505060405180910390f35b6101b26004803603604081101561014257600080fd5b810190808035906020019064010000000081111561015f57600080fd5b82018360208201111561017157600080fd5b8035906020019184602083028401116401000000008311171561019357600080fd5b9091929391929390803562ffffff169060200190929190505050610398565b005b6101bc610415565b604051808262ffffff16815260200191505060405180910390f35b610239600480360360408110156101ed57600080fd5b81019080803573ffffffffffffffffffffffffffffffffffffffff169060200190929190803573ffffffffffffffffffffffffffffffffffffffff16906020019092919050505061042a565b60405180821515815260200191505060405180910390f35b61033b600480360360a081101561026757600080fd5b810190808035906020019064010000000081111561028457600080fd5b82018360208201111561029657600080fd5b803590602001918460208302840111640100000000831117156102b857600080fd5b9091929391929390803590602001906401000000008111156102d957600080fd5b8201836020820111156102eb57600080fd5b8035906020019184602083028401116401000000008311171561030d57600080fd5b909192939192939080359060200190929190803590602001909291908035906020019092919050505061049c565b60405180821515815260200191505060405180910390f35b60016020528060005260406000206000915054906101000a900460ff1681565b60006020528060005260406000206000915054906101000a900460ff1681565b600281565b80600260006101000a81548162ffffff021916908362ffffff16021790555060005b8383905081101561040f5760018060008686858181106103d657fe5b90506020020135815260200190815260200160002060006101000a81548160ff02191690831515021790555080806001019150506103ba565b50505050565b600260009054906101000a900462ffffff1681565b60003073ffffffffffffffffffffffffffffffffffffffff168273ffffffffffffffffffffffffffffffffffffffff161480156104945750600073ffffffffffffffffffffffffffffffffffffffff168373ffffffffffffffffffffffffffffffffffffffff1614155b905092915050565b600080600190506000600260ff168a8a9050101580156104bc5750428611155b80156104c85750428510155b801561050457506002808111156104db57fe5b60ff1660008086815260200190815260200160002060009054906101000a900460ff1660ff1614155b156105dc5760005b8a8a90508160ff1610156105c25742600260009054906101000a900462ffffff1662ffffff168a8a8460ff1681811061054157fe5b9050602002013501111580156105895750600160008c8c8460ff1681811061056557fe5b90506020020135815260200190815260200160002060009054906101000a900460ff165b1561059b5781806001019250506105b5565b60008260ff16146105af57600182036105b2565b60005b91505b808060010191505061050c565b50600260ff168160ff1610156105d757600091505b6105e1565b600091505b819250505097965050505050505056fea264697066735822122014329e07fd656f1872e735ade07164e6050bc09f0018005ce40bb105c269e8f064736f6c634300060c0033",
			"opcodes": "PUSH1 0x80 PUSH1 0x40 MSTORE CALLVALUE DUP1 ISZERO PUSH2 0x10 JUMPI PUSH1 0x0 DUP1 REVERT JUMPDEST POP CALLER PUSH1 0x2 PUSH1 0x3 PUSH2 0x100 EXP DUP2 SLOAD DUP2 PUSH20 0xFFFFFFFFFFFFFFFFFFFFFFFFFFFFFFFFFFFFFFFF MUL NOT AND SWAP1 DUP4 PUSH20 0xFFFFFFFFFFFFFFFFFFFFFFFFFFFFFFFFFFFFFFFF AND MUL OR SWAP1 SSTORE POP PUSH1 0x0 DUP1 PUSH1 0x0 PUSH32 0x756E6B6E6F776E00000000000000000000000000000000000000000000000000 DUP2 MSTORE PUSH1 0x20 ADD SWAP1 DUP2 MSTORE PUSH1 0x20 ADD PUSH1 0x0 KECCAK256 PUSH1 0x0 PUSH2 0x100 EXP DUP2 SLOAD DUP2 PUSH1 0xFF MUL NOT AND SWAP1 DUP4 PUSH1 0xFF AND MUL OR SWAP1 SSTORE POP PUSH1 0x1 PUSH1 0x0 DUP1 PUSH32 0x676F6F6400000000000000000000000000000000000000000000000000000000 DUP2 MSTORE PUSH1 0x20 ADD SWAP1 DUP2 MSTORE PUSH1 0x20 ADD PUSH1 0x0 KECCAK256 PUSH1 0x0 PUSH2 0x100 EXP DUP2 SLOAD DUP2 PUSH1 0xFF MUL NOT AND SWAP1 DUP4 PUSH1 0xFF AND MUL OR SWAP1 SSTORE POP PUSH1 0x2 PUSH1 0x0 DUP1 PUSH32 0x7265766F6B656400000000000000000000000000000000000000000000000000 DUP2 MSTORE PUSH1 0x20 ADD SWAP1 DUP2 MSTORE PUSH1 0x20 ADD PUSH1 0x0 KECCAK256 PUSH1 0x0 PUSH2 0x100 EXP DUP2 SLOAD DUP2 PUSH1 0xFF MUL NOT AND SWAP1 DUP4 PUSH1 0xFF AND MUL OR SWAP1 SSTORE POP PUSH2 0x627 DUP1 PUSH2 0x145 PUSH1 0x0 CODECOPY PUSH1 0x0 RETURN INVALID PUSH1 0x80 PUSH1 0x40 MSTORE CALLVALUE DUP1 ISZERO PUSH2 0x10 JUMPI PUSH1 0x0 DUP1 REVERT JUMPDEST POP PUSH1 0x4 CALLDATASIZE LT PUSH2 0x7D JUMPI PUSH1 0x0 CALLDATALOAD PUSH1 0xE0 SHR DUP1 PUSH4 0x2D9A18B0 GT PUSH2 0x5B JUMPI DUP1 PUSH4 0x2D9A18B0 EQ PUSH2 0x12C JUMPI DUP1 PUSH4 0x4EFA638A EQ PUSH2 0x1B4 JUMPI DUP1 PUSH4 0x88D8840B EQ PUSH2 0x1D7 JUMPI DUP1 PUSH4 0xBDEBAE90 EQ PUSH2 0x251 JUMPI PUSH2 0x7D JUMP JUMPDEST DUP1 PUSH4 0x2377BC7F EQ PUSH2 0x82 JUMPI DUP1 PUSH4 0x261FA31E EQ PUSH2 0xC6 JUMPI DUP1 PUSH4 0x28A7EA3B EQ PUSH2 0x10B JUMPI JUMPDEST PUSH1 0x0 DUP1 REVERT JUMPDEST PUSH2 0xAE PUSH1 0x4 DUP1 CALLDATASIZE SUB PUSH1 0x20 DUP2 LT ISZERO PUSH2 0x98 JUMPI PUSH1 0x0 DUP1 REVERT JUMPDEST DUP2 ADD SWAP1 DUP1 DUP1 CALLDATALOAD SWAP1 PUSH1 0x20 ADD SWAP1 SWAP3 SWAP2 SWAP1 POP POP POP PUSH2 0x353 JUMP JUMPDEST PUSH1 0x40 MLOAD DUP1 DUP3 ISZERO ISZERO DUP2 MSTORE PUSH1 0x20 ADD SWAP2 POP POP PUSH1 0x40 MLOAD DUP1 SWAP2 SUB SWAP1 RETURN JUMPDEST PUSH2 0xF2 PUSH1 0x4 DUP1 CALLDATASIZE SUB PUSH1 0x20 DUP2 LT ISZERO PUSH2 0xDC JUMPI PUSH1 0x0 DUP1 REVERT JUMPDEST DUP2 ADD SWAP1 DUP1 DUP1 CALLDATALOAD SWAP1 PUSH1 0x20 ADD SWAP1 SWAP3 SWAP2 SWAP1 POP POP POP PUSH2 0x373 JUMP JUMPDEST PUSH1 0x40 MLOAD DUP1 DUP3 PUSH1 0xFF AND DUP2 MSTORE PUSH1 0x20 ADD SWAP2 POP POP PUSH1 0x40 MLOAD DUP1 SWAP2 SUB SWAP1 RETURN JUMPDEST PUSH2 0x113 PUSH2 0x393 JUMP JUMPDEST PUSH1 0x40 MLOAD DUP1 DUP3 PUSH1 0xFF AND DUP2 MSTORE PUSH1 0x20 ADD SWAP2 POP POP PUSH1 0x40 MLOAD DUP1 SWAP2 SUB SWAP1 RETURN JUMPDEST PUSH2 0x1B2 PUSH1 0x4 DUP1 CALLDATASIZE SUB PUSH1 0x40 DUP2 LT ISZERO PUSH2 0x142 JUMPI PUSH1 0x0 DUP1 REVERT JUMPDEST DUP2 ADD SWAP1 DUP1 DUP1 CALLDATALOAD SWAP1 PUSH1 0x20 ADD SWAP1 PUSH5 0x100000000 DUP2 GT ISZERO PUSH2 0x15F JUMPI PUSH1 0x0 DUP1 REVERT JUMPDEST DUP3 ADD DUP4 PUSH1 0x20 DUP3 ADD GT ISZERO PUSH2 0x171 JUMPI PUSH1 0x0 DUP1 REVERT JUMPDEST DUP1 CALLDATALOAD SWAP1 PUSH1 0x20 ADD SWAP2 DUP5 PUSH1 0x20 DUP4 MUL DUP5 ADD GT PUSH5 0x100000000 DUP4 GT OR ISZERO PUSH2 0x193 JUMPI PUSH1 0x0 DUP1 REVERT JUMPDEST SWAP1 SWAP2 SWAP3 SWAP4 SWAP2 SWAP3 SWAP4 SWAP1 DUP1 CALLDATALOAD PUSH3 0xFFFFFF AND SWAP1 PUSH1 0x20 ADD SWAP1 SWAP3 SWAP2 SWAP1 POP POP POP PUSH2 0x398 JUMP JUMPDEST STOP JUMPDEST PUSH2 0x1BC PUSH2 0x415 JUMP JUMPDEST PUSH1 0x40 MLOAD DUP1 DUP3 PUSH3 0xFFFFFF AND DUP2 MSTORE PUSH1 0x20 ADD SWAP2 POP POP PUSH1 0x40 MLOAD DUP1 SWAP2 SUB SWAP1 RETURN JUMPDEST PUSH2 0x239 PUSH1 0x4 DUP1 CALLDATASIZE SUB PUSH1 0x40 DUP2 LT ISZERO PUSH2 0x1ED JUMPI PUSH1 0x0 DUP1 REVERT JUMPDEST DUP2 ADD SWAP1 DUP1 DUP1 CALLDATALOAD PUSH20 0xFFFFFFFFFFFFFFFFFFFFFFFFFFFFFFFFFFFFFFFF AND SWAP1 PUSH1 0x20 ADD SWAP1 SWAP3 SWAP2 SWAP1 DUP1 CALLDATALOAD PUSH20 0xFFFFFFFFFFFFFFFFFFFFFFFFFFFFFFFFFFFFFFFF AND SWAP1 PUSH1 0x20 ADD SWAP1 SWAP3 SWAP2 SWAP1 POP POP POP PUSH2 0x42A JUMP JUMPDEST PUSH1 0x40 MLOAD DUP1 DUP3 ISZERO ISZERO DUP2 MSTORE PUSH1 0x20 ADD SWAP2 POP POP PUSH1 0x40 MLOAD DUP1 SWAP2 SUB SWAP1 RETURN JUMPDEST PUSH2 0x33B PUSH1 0x4 DUP1 CALLDATASIZE SUB PUSH1 0xA0 DUP2 LT ISZERO PUSH2 0x267 JUMPI PUSH1 0x0 DUP1 REVERT JUMPDEST DUP2 ADD SWAP1 DUP1 DUP1 CALLDATALOAD SWAP1 PUSH1 0x20 ADD SWAP1 PUSH5 0x100000000 DUP2 GT ISZERO PUSH2 0x284 JUMPI PUSH1 0x0 DUP1 REVERT JUMPDEST DUP3 ADD DUP4 PUSH1 0x20 DUP3 ADD GT ISZERO PUSH2 0x296 JUMPI PUSH1 0x0 DUP1 REVERT JUMPDEST DUP1 CALLDATALOAD SWAP1 PUSH1 0x20 ADD SWAP2 DUP5 PUSH1 0x20 DUP4 MUL DUP5 ADD GT PUSH5 0x100000000 DUP4 GT OR ISZERO PUSH2 0x2B8 JUMPI PUSH1 0x0 DUP1 REVERT JUMPDEST SWAP1 SWAP2 SWAP3 SWAP4 SWAP2 SWAP3 SWAP4 SWAP1 DUP1 CALLDATALOAD SWAP1 PUSH1 0x20 ADD SWAP1 PUSH5 0x100000000 DUP2 GT ISZERO PUSH2 0x2D9 JUMPI PUSH1 0x0 DUP1 REVERT JUMPDEST DUP3 ADD DUP4 PUSH1 0x20 DUP3 ADD GT ISZERO PUSH2 0x2EB JUMPI PUSH1 0x0 DUP1 REVERT JUMPDEST DUP1 CALLDATALOAD SWAP1 PUSH1 0x20 ADD SWAP2 DUP5 PUSH1 0x20 DUP4 MUL DUP5 ADD GT PUSH5 0x100000000 DUP4 GT OR ISZERO PUSH2 0x30D JUMPI PUSH1 0x0 DUP1 REVERT JUMPDEST SWAP1 SWAP2 SWAP3 SWAP4 SWAP2 SWAP3 SWAP4 SWAP1 DUP1 CALLDATALOAD SWAP1 PUSH1 0x20 ADD SWAP1 SWAP3 SWAP2 SWAP1 DUP1 CALLDATALOAD SWAP1 PUSH1 0x20 ADD SWAP1 SWAP3 SWAP2 SWAP1 DUP1 CALLDATALOAD SWAP1 PUSH1 0x20 ADD SWAP1 SWAP3 SWAP2 SWAP1 POP POP POP PUSH2 0x49C JUMP JUMPDEST PUSH1 0x40 MLOAD DUP1 DUP3 ISZERO ISZERO DUP2 MSTORE PUSH1 0x20 ADD SWAP2 POP POP PUSH1 0x40 MLOAD DUP1 SWAP2 SUB SWAP1 RETURN JUMPDEST PUSH1 0x1 PUSH1 0x20 MSTORE DUP1 PUSH1 0x0 MSTORE PUSH1 0x40 PUSH1 0x0 KECCAK256 PUSH1 0x0 SWAP2 POP SLOAD SWAP1 PUSH2 0x100 EXP SWAP1 DIV PUSH1 0xFF AND DUP2 JUMP JUMPDEST PUSH1 0x0 PUSH1 0x20 MSTORE DUP1 PUSH1 0x0 MSTORE PUSH1 0x40 PUSH1 0x0 KECCAK256 PUSH1 0x0 SWAP2 POP SLOAD SWAP1 PUSH2 0x100 EXP SWAP1 DIV PUSH1 0xFF AND DUP2 JUMP JUMPDEST PUSH1 0x2 DUP2 JUMP JUMPDEST DUP1 PUSH1 0x2 PUSH1 0x0 PUSH2 0x100 EXP DUP2 SLOAD DUP2 PUSH3 0xFFFFFF MUL NOT AND SWAP1 DUP4 PUSH3 0xFFFFFF AND MUL OR SWAP1 SSTORE POP PUSH1 0x0 JUMPDEST DUP4 DUP4 SWAP1 POP DUP2 LT ISZERO PUSH2 0x40F JUMPI PUSH1 0x1 DUP1 PUSH1 0x0 DUP7 DUP7 DUP6 DUP2 DUP2 LT PUSH2 0x3D6 JUMPI INVALID JUMPDEST SWAP1 POP PUSH1 0x20 MUL ADD CALLDATALOAD DUP2 MSTORE PUSH1 0x20 ADD SWAP1 DUP2 MSTORE PUSH1 0x20 ADD PUSH1 0x0 KECCAK256 PUSH1 0x0 PUSH2 0x100 EXP DUP2 SLOAD DUP2 PUSH1 0xFF MUL NOT AND SWAP1 DUP4 ISZERO ISZERO MUL OR SWAP1 SSTORE POP DUP1 DUP1 PUSH1 0x1 ADD SWAP2 POP POP PUSH2 0x3BA JUMP JUMPDEST POP POP POP POP JUMP JUMPDEST PUSH1 0x2 PUSH1 0x0 SWAP1 SLOAD SWAP1 PUSH2 0x100 EXP SWAP1 DIV PUSH3 0xFFFFFF AND DUP2 JUMP JUMPDEST PUSH1 0x0 ADDRESS PUSH20 0xFFFFFFFFFFFFFFFFFFFFFFFFFFFFFFFFFFFFFFFF AND DUP3 PUSH20 0xFFFFFFFFFFFFFFFFFFFFFFFFFFFFFFFFFFFFFFFF AND EQ DUP1 ISZERO PUSH2 0x494 JUMPI POP PUSH1 0x0 PUSH20 0xFFFFFFFFFFFFFFFFFFFFFFFFFFFFFFFFFFFFFFFF AND DUP4 PUSH20 0xFFFFFFFFFFFFFFFFFFFFFFFFFFFFFFFFFFFFFFFF AND EQ ISZERO JUMPDEST SWAP1 POP SWAP3 SWAP2 POP POP JUMP JUMPDEST PUSH1 0x0 DUP1 PUSH1 0x1 SWAP1 POP PUSH1 0x0 PUSH1 0x2 PUSH1 0xFF AND DUP11 DUP11 SWAP1 POP LT ISZERO DUP1 ISZERO PUSH2 0x4BC JUMPI POP TIMESTAMP DUP7 GT ISZERO JUMPDEST DUP1 ISZERO PUSH2 0x4C8 JUMPI POP TIMESTAMP DUP6 LT ISZERO JUMPDEST DUP1 ISZERO PUSH2 0x504 JUMPI POP PUSH1 0x2 DUP1 DUP2 GT ISZERO PUSH2 0x4DB JUMPI INVALID JUMPDEST PUSH1 0xFF AND PUSH1 0x0 DUP1 DUP7 DUP2 MSTORE PUSH1 0x20 ADD SWAP1 DUP2 MSTORE PUSH1 0x20 ADD PUSH1 0x0 KECCAK256 PUSH1 0x0 SWAP1 SLOAD SWAP1 PUSH2 0x100 EXP SWAP1 DIV PUSH1 0xFF AND PUSH1 0xFF AND EQ ISZERO JUMPDEST ISZERO PUSH2 0x5DC JUMPI PUSH1 0x0 JUMPDEST DUP11 DUP11 SWAP1 POP DUP2 PUSH1 0xFF AND LT ISZERO PUSH2 0x5C2 JUMPI TIMESTAMP PUSH1 0x2 PUSH1 0x0 SWAP1 SLOAD SWAP1 PUSH2 0x100 EXP SWAP1 DIV PUSH3 0xFFFFFF AND PUSH3 0xFFFFFF AND DUP11 DUP11 DUP5 PUSH1 0xFF AND DUP2 DUP2 LT PUSH2 0x541 JUMPI INVALID JUMPDEST SWAP1 POP PUSH1 0x20 MUL ADD CALLDATALOAD ADD GT ISZERO DUP1 ISZERO PUSH2 0x589 JUMPI POP PUSH1 0x1 PUSH1 0x0 DUP13 DUP13 DUP5 PUSH1 0xFF AND DUP2 DUP2 LT PUSH2 0x565 JUMPI INVALID JUMPDEST SWAP1 POP PUSH1 0x20 MUL ADD CALLDATALOAD DUP2 MSTORE PUSH1 0x20 ADD SWAP1 DUP2 MSTORE PUSH1 0x20 ADD PUSH1 0x0 KECCAK256 PUSH1 0x0 SWAP1 SLOAD SWAP1 PUSH2 0x100 EXP SWAP1 DIV PUSH1 0xFF AND JUMPDEST ISZERO PUSH2 0x59B JUMPI DUP2 DUP1 PUSH1 0x1 ADD SWAP3 POP POP PUSH2 0x5B5 JUMP JUMPDEST PUSH1 0x0 DUP3 PUSH1 0xFF AND EQ PUSH2 0x5AF JUMPI PUSH1 0x1 DUP3 SUB PUSH2 0x5B2 JUMP JUMPDEST PUSH1 0x0 JUMPDEST SWAP2 POP JUMPDEST DUP1 DUP1 PUSH1 0x1 ADD SWAP2 POP POP PUSH2 0x50C JUMP JUMPDEST POP PUSH1 0x2 PUSH1 0xFF AND DUP2 PUSH1 0xFF AND LT ISZERO PUSH2 0x5D7 JUMPI PUSH1 0x0 SWAP2 POP JUMPDEST PUSH2 0x5E1 JUMP JUMPDEST PUSH1 0x0 SWAP2 POP JUMPDEST DUP2 SWAP3 POP POP POP SWAP8 SWAP7 POP POP POP POP POP POP POP JUMP INVALID LOG2 PUSH5 0x6970667358 0x22 SLT KECCAK256 EQ ORIGIN SWAP15 SMOD REVERT PUSH6 0x6F1872E735AD 0xE0 PUSH18 0x64E6050BC09F0018005CE40BB105C269E8F0 PUSH5 0x736F6C6343 STOP MOD 0xC STOP CALLER "
		},
		"gasEstimates": {
			"creation": {
				"codeDepositCost": "315000",
				"executionCost": "84106",
				"totalCost": "399106"
			},
			"external": {
				"check(bytes32[],uint256[],uint256,uint256,bytes32)": "infinite",
				"ctLogIDs(bytes32)": "1195",
				"maximum_merge_delay()": "1069",
				"minSCT()": "256",
				"ocspResType(bytes32)": "1217",
				"setCTLogs(bytes32[],uint24)": "infinite",
				"verifyCCP(address,address)": "454"
			}
		},
		"methodIdentifiers": {
			"check(bytes32[],uint256[],uint256,uint256,bytes32)": "bdebae90",
			"ctLogIDs(bytes32)": "2377bc7f",
			"maximum_merge_delay()": "4efa638a",
			"minSCT()": "28a7ea3b",
			"ocspResType(bytes32)": "261fa31e",
			"setCTLogs(bytes32[],uint24)": "2d9a18b0",
			"verifyCCP(address,address)": "88d8840b"
		}
	},
	"abi": [
		{
			"inputs": [
				{
					"internalType": "bytes32[]",
					"name": "_sctLogID",
					"type": "bytes32[]"
				},
				{
					"internalType": "uint256[]",
					"name": "_sctTimestamp",
					"type": "uint256[]"
				},
				{
					"internalType": "uint256",
					"name": "_certValidFrom",
					"type": "uint256"
				},
				{
					"internalType": "uint256",
					"name": "_certValidTo",
					"type": "uint256"
				},
				{
					"internalType": "bytes32",
					"name": "_ocspRes",
					"type": "bytes32"
				}
			],
			"name": "check",
			"outputs": [
				{
					"internalType": "bool",
					"name": "",
					"type": "bool"
				}
			],
			"stateMutability": "view",
			"type": "function"
		},
		{
			"inputs": [
				{
					"internalType": "bytes32",
					"name": "",
					"type": "bytes32"
				}
			],
			"name": "ctLogIDs",
			"outputs": [
				{
					"internalType": "bool",
					"name": "",
					"type": "bool"
				}
			],
			"stateMutability": "view",
			"type": "function"
		},
		{
			"inputs": [],
			"name": "maximum_merge_delay",
			"outputs": [
				{
					"internalType": "uint24",
					"name": "",
					"type": "uint24"
				}
			],
			"stateMutability": "view",
			"type": "function"
		},
		{
			"inputs": [],
			"name": "minSCT",
			"outputs": [
				{
					"internalType": "uint8",
					"name": "",
					"type": "uint8"
				}
			],
			"stateMutability": "view",
			"type": "function"
		},
		{
			"inputs": [
				{
					"internalType": "bytes32",
					"name": "",
					"type": "bytes32"
				}
			],
			"name": "ocspResType",
			"outputs": [
				{
					"internalType": "uint8",
					"name": "",
					"type": "uint8"
				}
			],
			"stateMutability": "view",
			"type": "function"
		},
		{
			"inputs": [
				{
					"internalType": "bytes32[]",
					"name": "_ctLogIDs",
					"type": "bytes32[]"
				},
				{
					"internalType": "uint24",
					"name": "_maximum_merge_delay",
					"type": "uint24"
				}
			],
			"name": "setCTLogs",
			"outputs": [],
			"stateMutability": "nonpayable",
			"type": "function"
		},
		{
			"inputs": [
				{
					"internalType": "address",
					"name": "_clientAddr",
					"type": "address"
				},
				{
					"internalType": "address",
					"name": "_ccpAddr",
					"type": "address"
				}
			],
			"name": "verifyCCP",
			"outputs": [
				{
					"internalType": "bool",
					"name": "",
					"type": "bool"
				}
			],
			"stateMutability": "view",
			"type": "function"
		}
	]
}