{
	"data": {
		"bytecode": {
			"linkReferences": {},
			"object": "60806040526040518061024001604052807ff65c942fd1773022145418083094568ee34d131933bfdf0c2f200bcc4ef164e360001b81526020017f2979bef09e393921f056739f63a577e5be577d9c600af8f94d5d265c255dc78481526020017fe83ed0da3ef5063532e75728bc896bc903d3cbd1116beceb69e1777d6d06bd6e81526020017f7d3ef2f88fff88556824c2c0ca9e5289792bc50e78097f2e6a9768997e22f0d781526020017f46a555eb75fa912030b5a28969f4f37d112c4174befd49b885abf2fc70fe6d4781526020017fadf7befa7cff10c88b9d3d9c1e3e186ab467295dcfb10c24ca858634ebdc828a81526020017f293c519654c83965baaa50fc5807d4b76fbf587a2972dca4c30cf4e54547f47881526020017fa4b90990b418581487bb13a2cc67700a3c359804f91bdfb8e377cd0ec80ddc1081526020017fee4bbdb775ce60bae142691fabe19e66a30f7e5fb072d88300c47b897aa8fdcb81526020017fbbd9dfbc1f8a71b593942397aa927b473857950aab52e81a909664368e1ed18581526020017f4494652eb0eeceafc44007d8a8fe28c0dae682bed8cb31b53fd33396b5b681a881526020017f41c8cab1df22464a10c6a13a0942875e4e318b1b03ebeb4bc768f090629606f681526020017f7a328c54d8b72db620ea38e0521ee98416703213854d3bd22bc13a57a352eb5281526020017f5614069a2fd7c2ecd3f5e1bd44b23ec74676b9bc99115cc0ef949855d689d0dd81526020017f5cdc4392fee6ab4544b15e9ad456e61037fbd5fa47dca17394b25ee6f6c70eca81526020017f2245450759552456963fa12ff1f76d86e0232663adc04b7f5dc6835c6ee20f0281526020017f35cf191bbfb16c57bf0fad4c6d42cbbbb627202651ea3fe12aefa803c33bd64c81526020017feec095ee8d72640f92e3c3b91bc712a3696a097b4b6a1a1438e647b2cbedc5f981525060009060126102cd9291906102e0565b503480156102da57600080fd5b50610352565b82805482825590600052602060002090810192821561031c579160200282015b8281111561031b578251825591602001919060010190610300565b5b509050610329919061032d565b5090565b61034f91905b8082111561034b576000816000905550600101610333565b5090565b90565b60f8806103606000396000f3fe6080604052348015600f57600080fd5b506004361060325760003560e01c80634efa638a1460375780637e6752e814605d575b600080fd5b603d609c565b604051808262ffffff1662ffffff16815260200191505060405180910390f35b608660048036036020811015607157600080fd5b810190808035906020019092919050505060a3565b6040518082815260200191505060405180910390f35b6201518081565b6000818154811060af57fe5b90600052602060002001600091509050548156fea265627a7a7231582071247151846e83928ee92c80a2c0beae30732fb42074e0c60253ae96731831bd64736f6c63430005110032",
			"opcodes": "PUSH1 0x80 PUSH1 0x40 MSTORE PUSH1 0x40 MLOAD DUP1 PUSH2 0x240 ADD PUSH1 0x40 MSTORE DUP1 PUSH32 0xF65C942FD1773022145418083094568EE34D131933BFDF0C2F200BCC4EF164E3 PUSH1 0x0 SHL DUP2 MSTORE PUSH1 0x20 ADD PUSH32 0x2979BEF09E393921F056739F63A577E5BE577D9C600AF8F94D5D265C255DC784 DUP2 MSTORE PUSH1 0x20 ADD PUSH32 0xE83ED0DA3EF5063532E75728BC896BC903D3CBD1116BECEB69E1777D6D06BD6E DUP2 MSTORE PUSH1 0x20 ADD PUSH32 0x7D3EF2F88FFF88556824C2C0CA9E5289792BC50E78097F2E6A9768997E22F0D7 DUP2 MSTORE PUSH1 0x20 ADD PUSH32 0x46A555EB75FA912030B5A28969F4F37D112C4174BEFD49B885ABF2FC70FE6D47 DUP2 MSTORE PUSH1 0x20 ADD PUSH32 0xADF7BEFA7CFF10C88B9D3D9C1E3E186AB467295DCFB10C24CA858634EBDC828A DUP2 MSTORE PUSH1 0x20 ADD PUSH32 0x293C519654C83965BAAA50FC5807D4B76FBF587A2972DCA4C30CF4E54547F478 DUP2 MSTORE PUSH1 0x20 ADD PUSH32 0xA4B90990B418581487BB13A2CC67700A3C359804F91BDFB8E377CD0EC80DDC10 DUP2 MSTORE PUSH1 0x20 ADD PUSH32 0xEE4BBDB775CE60BAE142691FABE19E66A30F7E5FB072D88300C47B897AA8FDCB DUP2 MSTORE PUSH1 0x20 ADD PUSH32 0xBBD9DFBC1F8A71B593942397AA927B473857950AAB52E81A909664368E1ED185 DUP2 MSTORE PUSH1 0x20 ADD PUSH32 0x4494652EB0EECEAFC44007D8A8FE28C0DAE682BED8CB31B53FD33396B5B681A8 DUP2 MSTORE PUSH1 0x20 ADD PUSH32 0x41C8CAB1DF22464A10C6A13A0942875E4E318B1B03EBEB4BC768F090629606F6 DUP2 MSTORE PUSH1 0x20 ADD PUSH32 0x7A328C54D8B72DB620EA38E0521EE98416703213854D3BD22BC13A57A352EB52 DUP2 MSTORE PUSH1 0x20 ADD PUSH32 0x5614069A2FD7C2ECD3F5E1BD44B23EC74676B9BC99115CC0EF949855D689D0DD DUP2 MSTORE PUSH1 0x20 ADD PUSH32 0x5CDC4392FEE6AB4544B15E9AD456E61037FBD5FA47DCA17394B25EE6F6C70ECA DUP2 MSTORE PUSH1 0x20 ADD PUSH32 0x2245450759552456963FA12FF1F76D86E0232663ADC04B7F5DC6835C6EE20F02 DUP2 MSTORE PUSH1 0x20 ADD PUSH32 0x35CF191BBFB16C57BF0FAD4C6D42CBBBB627202651EA3FE12AEFA803C33BD64C DUP2 MSTORE PUSH1 0x20 ADD PUSH32 0xEEC095EE8D72640F92E3C3B91BC712A3696A097B4B6A1A1438E647B2CBEDC5F9 DUP2 MSTORE POP PUSH1 0x0 SWAP1 PUSH1 0x12 PUSH2 0x2CD SWAP3 SWAP2 SWAP1 PUSH2 0x2E0 JUMP JUMPDEST POP CALLVALUE DUP1 ISZERO PUSH2 0x2DA JUMPI PUSH1 0x0 DUP1 REVERT JUMPDEST POP PUSH2 0x352 JUMP JUMPDEST DUP3 DUP1 SLOAD DUP3 DUP3 SSTORE SWAP1 PUSH1 0x0 MSTORE PUSH1 0x20 PUSH1 0x0 KECCAK256 SWAP1 DUP2 ADD SWAP3 DUP3 ISZERO PUSH2 0x31C JUMPI SWAP2 PUSH1 0x20 MUL DUP3 ADD JUMPDEST DUP3 DUP2 GT ISZERO PUSH2 0x31B JUMPI DUP3 MLOAD DUP3 SSTORE SWAP2 PUSH1 0x20 ADD SWAP2 SWAP1 PUSH1 0x1 ADD SWAP1 PUSH2 0x300 JUMP JUMPDEST JUMPDEST POP SWAP1 POP PUSH2 0x329 SWAP2 SWAP1 PUSH2 0x32D JUMP JUMPDEST POP SWAP1 JUMP JUMPDEST PUSH2 0x34F SWAP2 SWAP1 JUMPDEST DUP1 DUP3 GT ISZERO PUSH2 0x34B JUMPI PUSH1 0x0 DUP2 PUSH1 0x0 SWAP1 SSTORE POP PUSH1 0x1 ADD PUSH2 0x333 JUMP JUMPDEST POP SWAP1 JUMP JUMPDEST SWAP1 JUMP JUMPDEST PUSH1 0xF8 DUP1 PUSH2 0x360 PUSH1 0x0 CODECOPY PUSH1 0x0 RETURN INVALID PUSH1 0x80 PUSH1 0x40 MSTORE CALLVALUE DUP1 ISZERO PUSH1 0xF JUMPI PUSH1 0x0 DUP1 REVERT JUMPDEST POP PUSH1 0x4 CALLDATASIZE LT PUSH1 0x32 JUMPI PUSH1 0x0 CALLDATALOAD PUSH1 0xE0 SHR DUP1 PUSH4 0x4EFA638A EQ PUSH1 0x37 JUMPI DUP1 PUSH4 0x7E6752E8 EQ PUSH1 0x5D JUMPI JUMPDEST PUSH1 0x0 DUP1 REVERT JUMPDEST PUSH1 0x3D PUSH1 0x9C JUMP JUMPDEST PUSH1 0x40 MLOAD DUP1 DUP3 PUSH3 0xFFFFFF AND PUSH3 0xFFFFFF AND DUP2 MSTORE PUSH1 0x20 ADD SWAP2 POP POP PUSH1 0x40 MLOAD DUP1 SWAP2 SUB SWAP1 RETURN JUMPDEST PUSH1 0x86 PUSH1 0x4 DUP1 CALLDATASIZE SUB PUSH1 0x20 DUP2 LT ISZERO PUSH1 0x71 JUMPI PUSH1 0x0 DUP1 REVERT JUMPDEST DUP2 ADD SWAP1 DUP1 DUP1 CALLDATALOAD SWAP1 PUSH1 0x20 ADD SWAP1 SWAP3 SWAP2 SWAP1 POP POP POP PUSH1 0xA3 JUMP JUMPDEST PUSH1 0x40 MLOAD DUP1 DUP3 DUP2 MSTORE PUSH1 0x20 ADD SWAP2 POP POP PUSH1 0x40 MLOAD DUP1 SWAP2 SUB SWAP1 RETURN JUMPDEST PUSH3 0x15180 DUP2 JUMP JUMPDEST PUSH1 0x0 DUP2 DUP2 SLOAD DUP2 LT PUSH1 0xAF JUMPI INVALID JUMPDEST SWAP1 PUSH1 0x0 MSTORE PUSH1 0x20 PUSH1 0x0 KECCAK256 ADD PUSH1 0x0 SWAP2 POP SWAP1 POP SLOAD DUP2 JUMP INVALID LOG2 PUSH6 0x627A7A723158 KECCAK256 PUSH18 0x247151846E83928EE92C80A2C0BEAE30732F 0xB4 KECCAK256 PUSH21 0xE0C60253AE96731831BD64736F6C63430005110032 "
		},
		"gasEstimates": {
			"creation": {
				"codeDepositCost": "49600",
				"executionCost": "infinite",
				"totalCost": "infinite"
			},
			"external": {
				"ctLogIDs(uint256)": "1980",
				"maximum_merge_delay()": "195"
			}
		},
		"methodIdentifiers": {
			"ctLogIDs(uint256)": "7e6752e8",
			"maximum_merge_delay()": "4efa638a"
		}
	},
	"abi": [
		{
			"constant": true,
			"inputs": [
				{
					"internalType": "uint256",
					"name": "",
					"type": "uint256"
				}
			],
			"name": "ctLogIDs",
			"outputs": [
				{
					"internalType": "bytes32",
					"name": "",
					"type": "bytes32"
				}
			],
			"payable": false,
			"stateMutability": "view",
			"type": "function"
		},
		{
			"constant": true,
			"inputs": [],
			"name": "maximum_merge_delay",
			"outputs": [
				{
					"internalType": "uint24",
					"name": "",
					"type": "uint24"
				}
			],
			"payable": false,
			"stateMutability": "view",
			"type": "function"
		}
	]
}