{
  "contractName": "Check",
  "abi": [
    {
      "constant": false,
      "inputs": [
        {
          "internalType": "string",
          "name": "cert",
          "type": "string"
        },
        {
          "internalType": "string",
          "name": "ctLog",
          "type": "string"
        },
        {
          "internalType": "string",
          "name": "revLog",
          "type": "string"
        },
        {
          "internalType": "string",
          "name": "signature",
          "type": "string"
        }
      ],
      "name": "check",
      "outputs": [
        {
          "internalType": "bool",
          "name": "",
          "type": "bool"
        }
      ],
      "payable": false,
      "stateMutability": "nonpayable",
      "type": "function"
    }
  ],
  "bytecode": "0x6080604052336000806101000a81548173ffffffffffffffffffffffffffffffffffffffff021916908373ffffffffffffffffffffffffffffffffffffffff1602179055506103d8806100536000396000f3fe608060405234801561001057600080fd5b506004361061002b5760003560e01c8063ea60e68714610030575b600080fd5b6102ae6004803603608081101561004657600080fd5b810190808035906020019064010000000081111561006357600080fd5b82018360208201111561007557600080fd5b8035906020019184600183028401116401000000008311171561009757600080fd5b91908080601f016020809104026020016040519081016040528093929190818152602001838380828437600081840152601f19601f820116905080830192505050505050509192919290803590602001906401000000008111156100fa57600080fd5b82018360208201111561010c57600080fd5b8035906020019184600183028401116401000000008311171561012e57600080fd5b91908080601f016020809104026020016040519081016040528093929190818152602001838380828437600081840152601f19601f8201169050808301925050505050505091929192908035906020019064010000000081111561019157600080fd5b8201836020820111156101a357600080fd5b803590602001918460018302840111640100000000831117156101c557600080fd5b91908080601f016020809104026020016040519081016040528093929190818152602001838380828437600081840152601f19601f8201169050808301925050505050505091929192908035906020019064010000000081111561022857600080fd5b82018360208201111561023a57600080fd5b8035906020019184600183028401116401000000008311171561025c57600080fd5b91908080601f016020809104026020016040519081016040528093929190818152602001838380828437600081840152601f19601f8201169050808301925050505050505091929192905050506102c8565b604051808215151515815260200191505060405180910390f35b60003373ffffffffffffffffffffffffffffffffffffffff166000809054906101000a900473ffffffffffffffffffffffffffffffffffffffff1673ffffffffffffffffffffffffffffffffffffffff161461036f576040517f08c379a000000000000000000000000000000000000000000000000000000000815260040180806020018281038252602c815260200180610378602c913960400191505060405180910390fd5b94935050505056fe4f6e6c7920636f6e7472616374206f776e65722063616e2061636365737320746869732066756e6374696f6ea265627a7a723158203094e8f3378e45f453f1cb1234f420cf5046831d5e90c0f70fa9f5b974e97a4664736f6c63430005100032",
  "source": "/*\r\nThis is a smart contract that implements the CheckInterface in Decentralised Domain Authentication on Ethereum blockchain.\r\nAuthors : Mohammed Sufiyan Aman, Riyanchhi Agrawal, Shakshi Pandey, Shehyaaz Khan Nayazi\r\n*/\r\n\r\npragma solidity ^0.5.0;\r\n\r\nimport \"./CheckInterface.sol\";\r\n\r\ncontract Check is CheckInterface {\r\n    function check(\r\n        string memory cert, \r\n        string memory ctLog, \r\n        string memory revLog, \r\n        string memory signature\r\n    ) public onlyOwner returns(bool){\r\n        // TODO: to be implemented\r\n    } \r\n}\r\n",
  "sourcePath": "C:/Users/snayazi/Documents/Final-Year-Project-DDA/code/contracts/Check.sol",
  "compiler": {
    "name": "solc",
    "version": "0.5.16+commit.9c3226ce.Emscripten.clang"
  },
  "schemaVersion": "3.3.4",
  "updatedAt": "2021-05-03T17:38:58.218Z",
  "networkType": "ethereum",
  "devdoc": {
    "methods": {}
  },
  "userdoc": {
    "methods": {}
  }
}