{
  "contractName": "Check",
  "abi": [
    {
      "inputs": [
        {
          "internalType": "bytes32",
          "name": "",
          "type": "bytes32"
        }
      ],
      "name": "ctLogIDs",
      "outputs": [
        {
          "internalType": "bool",
          "name": "",
          "type": "bool"
        }
      ],
      "stateMutability": "view",
      "type": "function"
    },
    {
      "inputs": [],
      "name": "maximum_merge_delay",
      "outputs": [
        {
          "internalType": "uint24",
          "name": "",
          "type": "uint24"
        }
      ],
      "stateMutability": "view",
      "type": "function"
    },
    {
      "inputs": [],
      "name": "minSCT",
      "outputs": [
        {
          "internalType": "uint8",
          "name": "",
          "type": "uint8"
        }
      ],
      "stateMutability": "view",
      "type": "function"
    },
    {
      "inputs": [
        {
          "internalType": "bytes32",
          "name": "",
          "type": "bytes32"
        }
      ],
      "name": "ocspResType",
      "outputs": [
        {
          "internalType": "uint8",
          "name": "",
          "type": "uint8"
        }
      ],
      "stateMutability": "view",
      "type": "function"
    },
    {
      "inputs": [
        {
          "internalType": "bytes32[]",
          "name": "_ctLogIDs",
          "type": "bytes32[]"
        },
        {
          "internalType": "uint24",
          "name": "_maximum_merge_delay",
          "type": "uint24"
        }
      ],
      "name": "setCTLogs",
      "outputs": [],
      "stateMutability": "nonpayable",
      "type": "function"
    },
    {
      "inputs": [
        {
          "internalType": "address",
          "name": "_clientAddr",
          "type": "address"
        },
        {
          "internalType": "address",
          "name": "_ccpAddr",
          "type": "address"
        }
      ],
      "name": "verifyCCP",
      "outputs": [
        {
          "internalType": "bool",
          "name": "",
          "type": "bool"
        }
      ],
      "stateMutability": "view",
      "type": "function"
    },
    {
      "inputs": [
        {
          "internalType": "bytes32[]",
          "name": "_sctLogID",
          "type": "bytes32[]"
        },
        {
          "internalType": "uint256[]",
          "name": "_sctTimestamp",
          "type": "uint256[]"
        },
        {
          "internalType": "uint256",
          "name": "_certValidFrom",
          "type": "uint256"
        },
        {
          "internalType": "uint256",
          "name": "_certValidTo",
          "type": "uint256"
        },
        {
          "internalType": "bytes32",
          "name": "_ocspRes",
          "type": "bytes32"
        }
      ],
      "name": "check",
      "outputs": [
        {
          "internalType": "bool",
          "name": "",
          "type": "bool"
        }
      ],
      "stateMutability": "view",
      "type": "function"
    }
  ],
  "bytecode": "0x608060405233600260036101000a81548173ffffffffffffffffffffffffffffffffffffffff021916908373ffffffffffffffffffffffffffffffffffffffff16021790555060008060007f756e6b6e6f776e00000000000000000000000000000000000000000000000000815260200190815260200160002060006101000a81548160ff021916908360ff16021790555060016000807f676f6f6400000000000000000000000000000000000000000000000000000000815260200190815260200160002060006101000a81548160ff021916908360ff16021790555060026000807f7265766f6b656400000000000000000000000000000000000000000000000000815260200190815260200160002060006101000a81548160ff021916908360ff160217905550610641806101386000396000f3fe608060405234801561001057600080fd5b506004361061007d5760003560e01c80632d9a18b01161005b5780632d9a18b0146101345780634efa638a146101bc57806388d8840b146101e4578063bdebae90146102605761007d565b80632377bc7f14610082578063261fa31e146100c857806328a7ea3b14610110575b600080fd5b6100ae6004803603602081101561009857600080fd5b8101908080359060200190929190505050610364565b604051808215151515815260200191505060405180910390f35b6100f4600480360360208110156100de57600080fd5b8101908080359060200190929190505050610384565b604051808260ff1660ff16815260200191505060405180910390f35b6101186103a4565b604051808260ff1660ff16815260200191505060405180910390f35b6101ba6004803603604081101561014a57600080fd5b810190808035906020019064010000000081111561016757600080fd5b82018360208201111561017957600080fd5b8035906020019184602083028401116401000000008311171561019b57600080fd5b9091929391929390803562ffffff1690602001909291905050506103a9565b005b6101c4610429565b604051808262ffffff1662ffffff16815260200191505060405180910390f35b610246600480360360408110156101fa57600080fd5b81019080803573ffffffffffffffffffffffffffffffffffffffff169060200190929190803573ffffffffffffffffffffffffffffffffffffffff16906020019092919050505061043e565b604051808215151515815260200191505060405180910390f35b61034a600480360360a081101561027657600080fd5b810190808035906020019064010000000081111561029357600080fd5b8201836020820111156102a557600080fd5b803590602001918460208302840111640100000000831117156102c757600080fd5b9091929391929390803590602001906401000000008111156102e857600080fd5b8201836020820111156102fa57600080fd5b8035906020019184602083028401116401000000008311171561031c57600080fd5b90919293919293908035906020019092919080359060200190929190803590602001909291905050506104b0565b604051808215151515815260200191505060405180910390f35b60016020528060005260406000206000915054906101000a900460ff1681565b60006020528060005260406000206000915054906101000a900460ff1681565b600281565b80600260006101000a81548162ffffff021916908362ffffff16021790555060008090505b838390508110156104235760018060008686858181106103ea57fe5b90506020020135815260200190815260200160002060006101000a81548160ff02191690831515021790555080806001019150506103ce565b50505050565b600260009054906101000a900462ffffff1681565b60003073ffffffffffffffffffffffffffffffffffffffff168273ffffffffffffffffffffffffffffffffffffffff161480156104a85750600073ffffffffffffffffffffffffffffffffffffffff168373ffffffffffffffffffffffffffffffffffffffff1614155b905092915050565b600080600190506000809050600260ff168a8a9050101580156104d35750428611155b80156104df5750428510155b801561051b57506002808111156104f257fe5b60ff1660008086815260200190815260200160002060009054906101000a900460ff1660ff1614155b156105f65760008090505b8a8a90508160ff1610156105dc5742600260009054906101000a900462ffffff1662ffffff168a8a8460ff1681811061055b57fe5b9050602002013501111580156105a35750600160008c8c8460ff1681811061057f57fe5b90506020020135815260200190815260200160002060009054906101000a900460ff165b156105b55781806001019250506105cf565b60008260ff16146105c957600182036105cc565b60005b91505b8080600101915050610526565b50600260ff168160ff1610156105f157600091505b6105fb565b600091505b819250505097965050505050505056fea26469706673582212203c434b450aa2fba5eb7de586432a68b1b33adfc8d74dabadf2427d070a8b3ebf64736f6c63430006010033",
  "source": "// SPDX-License-Identifier: MIT\r\n/*\r\nThis is a smart contract that implements the CheckInterface in Decentralised Domain Authentication on Ethereum blockchain.\r\nAuthors : Mohammed Sufiyan Aman, Riyanchhi Agrawal, Shakshi Pandey, Shehyaaz Khan Nayazi\r\n*/\r\n\r\npragma solidity ^0.6.0;\r\n\r\nimport \"./CheckAbstract.sol\";\r\n\r\ncontract Check is CheckAbstract {\r\n     /* Overrides function of CheckAbstract */\r\n     function verifyCCP(\r\n        address _clientAddr,\r\n        address _ccpAddr\r\n     ) external view override returns(bool){\r\n         return (_ccpAddr == address(this) && _clientAddr != address(0));\r\n     }\r\n    \r\n    /* Overrides function of CheckAbstract */\r\n    function check(\r\n        bytes32[] calldata _sctLogID,\r\n        uint256[] calldata _sctTimestamp,\r\n        uint256 _certValidFrom,\r\n        uint256 _certValidTo,\r\n        bytes32 _ocspRes\r\n    ) external view override returns(bool){\r\n        /* checks the sct log id against the ct log ids, also checks certificate validity */\r\n        bool certStatus = true; // assume certificate is valid\r\n        uint8 found = 0;\r\n         // certificate must have at least 2 SCTs and must not be expired\r\n        if(_sctLogID.length >= minSCT && \r\n            _certValidFrom <= now && _certValidTo >= now && \r\n            ocspResType[_ocspRes] != uint8(OCSPResponse.revoked)){\r\n                \r\n            for(uint8 i=0; i < _sctLogID.length; i++){\r\n                if(_sctTimestamp[i] + maximum_merge_delay <= now && ctLogIDs[_sctLogID[i]]){\r\n                    found++;  \r\n                }\r\n                else{\r\n                    found = found == 0 ? 0 : found - 1; \r\n                }\r\n            }\r\n            if(found < minSCT){\r\n                certStatus = false;\r\n            }  \r\n        }\r\n        else{\r\n            certStatus = false;\r\n        }\r\n        return certStatus;\r\n    } \r\n}\r\n",
  "sourcePath": "C:/Users/snayazi/Documents/Final-Year-Project-DDA/code/contracts/Check.sol",
  "compiler": {
    "name": "solc",
    "version": "0.6.1+commit.e6f7d5a4.Emscripten.clang"
  },
  "schemaVersion": "3.4.1",
  "updatedAt": "2021-06-13T09:35:05.931Z",
  "devdoc": {
    "methods": {}
  },
  "userdoc": {
    "methods": {}
  }
}