{
  "contractName": "Constants",
  "abi": [
    {
      "constant": true,
      "inputs": [],
      "name": "getDRPAmount",
      "outputs": [
        {
          "internalType": "uint256",
          "name": "",
          "type": "uint256"
        }
      ],
      "payable": false,
      "stateMutability": "view",
      "type": "function"
    },
    {
      "constant": true,
      "inputs": [],
      "name": "getTriggerAmount",
      "outputs": [
        {
          "internalType": "uint256",
          "name": "",
          "type": "uint256"
        }
      ],
      "payable": false,
      "stateMutability": "view",
      "type": "function"
    }
  ],
  "bytecode": "0x60bf610025600b82828239805160001a60731461001857fe5b30600052607381538281f3fe7300000000000000000000000000000000000000003014608060405260043610603d5760003560e01c80634be05f47146042578063722638ea14605e575b600080fd5b6048607a565b6040518082815260200191505060405180910390f35b60646082565b6040518082815260200191505060405180910390f35b600080905090565b60008090509056fea265627a7a723158200ad8657556072fbcb01d1d9fcbe85992870a910e4009e14ecea5b037d09064e564736f6c63430005100032",
  "source": "/*\r\nThis is a library that defines the constants used  in Decentralised Domain Authentication on Ethereum blockchain.\r\nAuthors : Mohammed Sufiyan Aman, Riyanchhi Agrawal, Shakshi Pandey, Shehyaaz Khan Nayazi\r\n*/\r\n\r\npragma solidity ^0.5.0;\r\n\r\nlibrary Constants {\r\n\t// constants\r\n\tuint constant drpAmount = 0; // amount to purchase DRP\r\n\tuint constant triggerAmount = 0; // amount paid as compensation if certificate is invalid\r\n\t\r\n\t// getter functions\r\n\tfunction getDRPAmount() public view returns(uint) {\r\n\t    return drpAmount; // returns DRP amount\r\n\t}\r\n\t\r\n\tfunction getTriggerAmount() public view returns(uint) {\r\n\t    return triggerAmount; // returns Trigger amount\r\n\t}\r\n}\r\n",
  "sourcePath": "C:\\Users\\snayazi\\Documents\\Final-Year-Project-DDA\\code\\contracts\\Constants.sol",
  "compiler": {
    "name": "solc",
    "version": "0.5.16+commit.9c3226ce.Emscripten.clang"
  },
  "schemaVersion": "3.3.4",
  "updatedAt": "2021-05-03T17:38:58.215Z",
  "networkType": "ethereum",
  "devdoc": {
    "methods": {}
  },
  "userdoc": {
    "methods": {}
  }
}