{
  "contractName": "DDA",
  "abi": [
    {
      "inputs": [
        {
          "internalType": "bytes32[]",
          "name": "_ctLogsID",
          "type": "bytes32[]"
        }
      ],
      "payable": false,
      "stateMutability": "nonpayable",
      "type": "constructor"
    },
    {
      "anonymous": false,
      "inputs": [
        {
          "indexed": true,
          "internalType": "address",
          "name": "_from",
          "type": "address"
        },
        {
          "indexed": true,
          "internalType": "address",
          "name": "_to",
          "type": "address"
        },
        {
          "indexed": false,
          "internalType": "uint256",
          "name": "_amount",
          "type": "uint256"
        }
      ],
      "name": "DRPpurchased",
      "type": "event"
    },
    {
      "constant": true,
      "inputs": [
        {
          "internalType": "uint256",
          "name": "",
          "type": "uint256"
        }
      ],
      "name": "ctLogsID",
      "outputs": [
        {
          "internalType": "bytes32",
          "name": "",
          "type": "bytes32"
        }
      ],
      "payable": false,
      "stateMutability": "view",
      "type": "function"
    },
    {
      "constant": false,
      "inputs": [
        {
          "internalType": "string",
          "name": "_name",
          "type": "string"
        },
        {
          "internalType": "uint256",
          "name": "_validFrom",
          "type": "uint256"
        },
        {
          "internalType": "uint256",
          "name": "_validTo",
          "type": "uint256"
        },
        {
          "internalType": "uint16",
          "name": "_version",
          "type": "uint16"
        },
        {
          "internalType": "address",
          "name": "_checkContract",
          "type": "address"
        }
      ],
      "name": "registerClient",
      "outputs": [
        {
          "internalType": "bool",
          "name": "",
          "type": "bool"
        }
      ],
      "payable": false,
      "stateMutability": "nonpayable",
      "type": "function"
    },
    {
      "constant": false,
      "inputs": [
        {
          "internalType": "string",
          "name": "_domainName",
          "type": "string"
        },
        {
          "internalType": "string",
          "name": "_issuerName",
          "type": "string"
        },
        {
          "internalType": "uint256",
          "name": "_validFrom",
          "type": "uint256"
        },
        {
          "internalType": "uint256",
          "name": "_validTo",
          "type": "uint256"
        },
        {
          "internalType": "uint16",
          "name": "_version",
          "type": "uint16"
        },
        {
          "internalType": "address",
          "name": "_reactContract",
          "type": "address"
        },
        {
          "internalType": "bytes32",
          "name": "_domainSign",
          "type": "bytes32"
        }
      ],
      "name": "registerDomain",
      "outputs": [
        {
          "internalType": "bool",
          "name": "",
          "type": "bool"
        }
      ],
      "payable": false,
      "stateMutability": "nonpayable",
      "type": "function"
    },
    {
      "constant": false,
      "inputs": [
        {
          "internalType": "string",
          "name": "_domainName",
          "type": "string"
        }
      ],
      "name": "purchaseDRP",
      "outputs": [],
      "payable": false,
      "stateMutability": "nonpayable",
      "type": "function"
    },
    {
      "constant": false,
      "inputs": [],
      "name": "checkCertificate",
      "outputs": [],
      "payable": false,
      "stateMutability": "nonpayable",
      "type": "function"
    }
  ],
  "bytecode": "0x608060405234801561001057600080fd5b50604051610ada380380610ada8339818101604052602081101561003357600080fd5b810190808051604051939291908464010000000082111561005357600080fd5b8382019150602082018581111561006957600080fd5b825186602082028301116401000000008211171561008657600080fd5b8083526020830192505050908051906020019060200280838360005b838110156100bd5780820151818401526020810190506100a2565b5050505090500160405250505060008090505b81518161ffff16101561012d576000828261ffff16815181106100ef57fe5b6020026020010151908060018154018082558091505090600182039060005260206000200160009091929091909150555080806001019150506100d0565b505061099c8061013e6000396000f3fe608060405234801561001057600080fd5b50600436106100575760003560e01c80636bc68db61461005c5780638df99c9514610117578063d506eeea146102cd578063dcad0216146102d7578063f8adb7e2146103ec575b600080fd5b6101156004803603602081101561007257600080fd5b810190808035906020019064010000000081111561008f57600080fd5b8201836020820111156100a157600080fd5b803590602001918460018302840111640100000000831117156100c357600080fd5b91908080601f016020809104026020016040519081016040528093929190818152602001838380828437600081840152601f19601f82011690508083019250505050505050919291929050505061042e565b005b6102b3600480360360e081101561012d57600080fd5b810190808035906020019064010000000081111561014a57600080fd5b82018360208201111561015c57600080fd5b8035906020019184600183028401116401000000008311171561017e57600080fd5b91908080601f016020809104026020016040519081016040528093929190818152602001838380828437600081840152601f19601f820116905080830192505050505050509192919290803590602001906401000000008111156101e157600080fd5b8201836020820111156101f357600080fd5b8035906020019184600183028401116401000000008311171561021557600080fd5b91908080601f016020809104026020016040519081016040528093929190818152602001838380828437600081840152601f19601f8201169050808301925050505050505091929192908035906020019092919080359060200190929190803561ffff169060200190929190803573ffffffffffffffffffffffffffffffffffffffff16906020019092919080359060200190929190505050610431565b604051808215151515815260200191505060405180910390f35b6102d561070c565b005b6103d2600480360360a08110156102ed57600080fd5b810190808035906020019064010000000081111561030a57600080fd5b82018360208201111561031c57600080fd5b8035906020019184600183028401116401000000008311171561033e57600080fd5b91908080601f016020809104026020016040519081016040528093929190818152602001838380828437600081840152601f19601f8201169050808301925050505050505091929192908035906020019092919080359060200190929190803561ffff169060200190929190803573ffffffffffffffffffffffffffffffffffffffff16906020019092919050505061070e565b604051808215151515815260200191505060405180910390f35b6104186004803603602081101561040257600080fd5b81019080803590602001909291905050506108a1565b6040518082815260200191505060405180910390f35b50565b60006040518060e001604052808981526020018881526020013373ffffffffffffffffffffffffffffffffffffffff1681526020018781526020018681526020018561ffff1681526020018473ffffffffffffffffffffffffffffffffffffffff168152506002896040518082805190602001908083835b602083106104cc57805182526020820191506020810190506020830392506104a9565b6001836020036101000a0380198251168184511680821785525050505050509050019150509081526020016040518091039020600001600082015181600001908051906020019061051e9291906108c2565b50602082015181600101908051906020019061053b9291906108c2565b5060408201518160020160006101000a81548173ffffffffffffffffffffffffffffffffffffffff021916908373ffffffffffffffffffffffffffffffffffffffff160217905550606082015181600301556080820151816004015560a08201518160050160006101000a81548161ffff021916908361ffff16021790555060c08201518160050160026101000a81548173ffffffffffffffffffffffffffffffffffffffff021916908373ffffffffffffffffffffffffffffffffffffffff160217905550905050816002896040518082805190602001908083835b6020831061063b5780518252602082019150602081019050602083039250610618565b6001836020036101000a03801982511681845116808217855250505050505090500191505090815260200160405180910390206006018190555060006002896040518082805190602001908083835b602083106106ad578051825260208201915060208101905060208303925061068a565b6001836020036101000a038019825116818451168082178552505050505050905001915050908152602001604051809103902060070160006101000a81548161ffff021916908361ffff16021790555060019050979650505050505050565b565b60006040518060c001604052808781526020013373ffffffffffffffffffffffffffffffffffffffff1681526020018681526020018581526020018461ffff1681526020018373ffffffffffffffffffffffffffffffffffffffff16815250600160003373ffffffffffffffffffffffffffffffffffffffff1673ffffffffffffffffffffffffffffffffffffffff16815260200190815260200160002060000160008201518160000190805190602001906107cb9291906108c2565b5060208201518160010160006101000a81548173ffffffffffffffffffffffffffffffffffffffff021916908373ffffffffffffffffffffffffffffffffffffffff160217905550604082015181600201556060820151816003015560808201518160040160006101000a81548161ffff021916908361ffff16021790555060a08201518160040160026101000a81548173ffffffffffffffffffffffffffffffffffffffff021916908373ffffffffffffffffffffffffffffffffffffffff1602179055509050506001905095945050505050565b600081815481106108ae57fe5b906000526020600020016000915090505481565b828054600181600116156101000203166002900490600052602060002090601f016020900481019282601f1061090357805160ff1916838001178555610931565b82800160010185558215610931579182015b82811115610930578251825591602001919060010190610915565b5b50905061093e9190610942565b5090565b61096491905b80821115610960576000816000905550600101610948565b5090565b9056fea265627a7a72315820cefcd7cf12376a50fc003ce7fd8fd891fc10a090b0846ee23178924fb854ece964736f6c63430005100032",
  "source": "/*\r\nThis is a smart contract to implement the functionality of Decentralised Domain Authentication on Ethereum blockchain.\r\nAuthors : Mohammed Sufiyan Aman, Riyanchhi Agrawal, Shakshi Pandey, Shehyaaz Khan Nayazi\r\n*/\r\n\r\npragma solidity ^0.5.0;\r\n\r\nimport \"./Constants.sol\";\r\nimport \"./CheckInterface.sol\" as Check;\r\nimport \"./DRPReactionInterface.sol\" as Reaction;\r\n\r\ncontract DDA {\r\n    // the log ID of the CT logs trusted by DDA are stored in ctLogsID array\r\n    bytes32[] public ctLogsID;\r\n\r\n    // Client Check Policy definition\r\n    struct CCP {\r\n        string clientName;\r\n        address clientAddress;\r\n        uint256 validFrom;\r\n        uint256 validTo;\r\n        uint16 version;\r\n        address checkContract;\r\n    }\r\n    \r\n    // Domain Reaction Policy definition\r\n    struct DRP {\r\n        string domainName;\r\n        string issuerName;\r\n        address domainAddress;\r\n        uint256 validFrom;\r\n        uint256 validTo;\r\n        uint16 version;\r\n        address reactContract;\r\n    }\r\n    \r\n    struct Client {\r\n        CCP ccp;\r\n        DRP[] drpList;\r\n    }\r\n    \r\n    struct Domain {\r\n        DRP drp;\r\n        bytes32 domainSign;\r\n        uint16 numRevoked;\r\n    }\r\n    \r\n    // an associative array of clients registered in the system\r\n    mapping(address => Client) clients;\r\n    \r\n    // an associative array of domains registered in the system\r\n    mapping(string => Domain) domains;\r\n    \r\n    event DRPpurchased(address indexed _from, address indexed _to, uint _amount);\r\n\r\n    constructor(bytes32[] memory _ctLogsID) public {\r\n        for(uint16 i = 0; i < _ctLogsID.length; i++){\r\n            ctLogsID.push(_ctLogsID[i]);\r\n        }\r\n    }\r\n    \r\n    function registerClient(\r\n        string memory _name,\r\n        uint256 _validFrom,\r\n        uint256 _validTo,\r\n        uint16 _version,\r\n        address _checkContract\r\n    ) public returns (bool){\r\n        clients[msg.sender].ccp = CCP(_name, msg.sender, _validFrom, _validTo, _version, _checkContract);\r\n        return true; \r\n    }\r\n    \r\n    function registerDomain(\r\n        string memory _domainName,\r\n        string memory _issuerName,\r\n        uint256 _validFrom,\r\n        uint256 _validTo,\r\n        uint16 _version,\r\n        address _reactContract,\r\n        bytes32 _domainSign\r\n    ) public returns (bool){\r\n        domains[_domainName].drp = DRP(_domainName, _issuerName, msg.sender, _validFrom, _validTo, _version, _reactContract);\r\n        domains[_domainName].domainSign = _domainSign;\r\n        domains[_domainName].numRevoked = 0;\r\n        return true;\r\n    }\r\n    \r\n    function purchaseDRP(string memory _domainName) public {\r\n        /* Parameters : Client address and domain name\r\n        *  TODO : Purchase DRP of domain; emit event DRPpurchased\r\n        */\r\n        \r\n    }\r\n    \r\n    function checkCertificate() public {\r\n        /* Parameters : Client address, domain name, CT log of the domain certificate, Revocation list of the domain certificate, \r\n        *               signature verification of the certificate\r\n        *  TODO : Call Check contract from Client CCP, check validity of certificate using CT log\r\n        *  Returns : boolean value true or false\r\n        */\r\n    }\r\n}\r\n",
  "sourcePath": "C:/Users/snayazi/Documents/Final-Year-Project-DDA/code/contracts/DDA.sol",
  "compiler": {
    "name": "solc",
    "version": "0.5.16+commit.9c3226ce.Emscripten.clang"
  },
  "schemaVersion": "3.3.4",
  "updatedAt": "2021-05-03T17:38:58.225Z",
  "networkType": "ethereum",
  "devdoc": {
    "methods": {}
  },
  "userdoc": {
    "methods": {}
  }
}