{
  "contractName": "DDA",
  "abi": [
    {
      "inputs": [
        {
          "internalType": "bytes32[]",
          "name": "_ctLogIDs",
          "type": "bytes32[]"
        }
      ],
      "stateMutability": "nonpayable",
      "type": "constructor"
    },
    {
      "anonymous": false,
      "inputs": [
        {
          "indexed": false,
          "internalType": "address",
          "name": "_clientAddr",
          "type": "address"
        },
        {
          "indexed": false,
          "internalType": "bytes32",
          "name": "_domainName",
          "type": "bytes32"
        },
        {
          "indexed": false,
          "internalType": "bool",
          "name": "_certValid",
          "type": "bool"
        }
      ],
      "name": "CertChecked",
      "type": "event"
    },
    {
      "anonymous": false,
      "inputs": [
        {
          "indexed": false,
          "internalType": "address",
          "name": "_domainAddr",
          "type": "address"
        }
      ],
      "name": "DRPDeleted",
      "type": "event"
    },
    {
      "anonymous": false,
      "inputs": [
        {
          "indexed": false,
          "internalType": "bytes32",
          "name": "_domainName",
          "type": "bytes32"
        }
      ],
      "name": "DRPExpired",
      "type": "event"
    },
    {
      "anonymous": false,
      "inputs": [
        {
          "indexed": false,
          "internalType": "address",
          "name": "_clientAddr",
          "type": "address"
        },
        {
          "indexed": false,
          "internalType": "bytes32",
          "name": "_domainName",
          "type": "bytes32"
        }
      ],
      "name": "DRPpurchased",
      "type": "event"
    },
    {
      "anonymous": false,
      "inputs": [
        {
          "indexed": false,
          "internalType": "address",
          "name": "_addr",
          "type": "address"
        }
      ],
      "name": "Registered",
      "type": "event"
    },
    {
      "anonymous": false,
      "inputs": [
        {
          "indexed": false,
          "internalType": "address",
          "name": "_addr",
          "type": "address"
        }
      ],
      "name": "Updated",
      "type": "event"
    },
    {
      "inputs": [],
      "name": "client_registration_fee",
      "outputs": [
        {
          "internalType": "uint256",
          "name": "",
          "type": "uint256"
        }
      ],
      "stateMutability": "view",
      "type": "function"
    },
    {
      "inputs": [],
      "name": "contractOwner",
      "outputs": [
        {
          "internalType": "address payable",
          "name": "",
          "type": "address"
        }
      ],
      "stateMutability": "view",
      "type": "function"
    },
    {
      "inputs": [
        {
          "internalType": "uint256",
          "name": "",
          "type": "uint256"
        }
      ],
      "name": "ctLogIDs",
      "outputs": [
        {
          "internalType": "bytes32",
          "name": "",
          "type": "bytes32"
        }
      ],
      "stateMutability": "view",
      "type": "function"
    },
    {
      "inputs": [],
      "name": "domain_registration_fee",
      "outputs": [
        {
          "internalType": "uint256",
          "name": "",
          "type": "uint256"
        }
      ],
      "stateMutability": "view",
      "type": "function"
    },
    {
      "inputs": [],
      "name": "maximum_merge_delay",
      "outputs": [
        {
          "internalType": "uint24",
          "name": "",
          "type": "uint24"
        }
      ],
      "stateMutability": "view",
      "type": "function"
    },
    {
      "inputs": [
        {
          "internalType": "bytes32",
          "name": "",
          "type": "bytes32"
        }
      ],
      "name": "registeredDomainNames",
      "outputs": [
        {
          "internalType": "uint256",
          "name": "",
          "type": "uint256"
        }
      ],
      "stateMutability": "view",
      "type": "function"
    },
    {
      "inputs": [
        {
          "internalType": "uint256",
          "name": "",
          "type": "uint256"
        }
      ],
      "name": "registeredDomains",
      "outputs": [
        {
          "internalType": "address",
          "name": "",
          "type": "address"
        }
      ],
      "stateMutability": "view",
      "type": "function"
    },
    {
      "inputs": [],
      "name": "update_fee",
      "outputs": [
        {
          "internalType": "uint256",
          "name": "",
          "type": "uint256"
        }
      ],
      "stateMutability": "view",
      "type": "function"
    },
    {
      "stateMutability": "payable",
      "type": "receive"
    },
    {
      "inputs": [
        {
          "internalType": "bytes32",
          "name": "_name",
          "type": "bytes32"
        },
        {
          "internalType": "uint256",
          "name": "_validFrom",
          "type": "uint256"
        },
        {
          "internalType": "uint256",
          "name": "_validTo",
          "type": "uint256"
        },
        {
          "internalType": "address",
          "name": "_checkContract",
          "type": "address"
        },
        {
          "internalType": "uint8",
          "name": "_version",
          "type": "uint8"
        }
      ],
      "name": "registerClient",
      "outputs": [],
      "stateMutability": "payable",
      "type": "function"
    },
    {
      "inputs": [
        {
          "internalType": "uint256",
          "name": "_validTo",
          "type": "uint256"
        }
      ],
      "name": "updateClient",
      "outputs": [],
      "stateMutability": "payable",
      "type": "function"
    },
    {
      "inputs": [
        {
          "internalType": "bytes32",
          "name": "_domainName",
          "type": "bytes32"
        },
        {
          "internalType": "bytes32",
          "name": "_issuerName",
          "type": "bytes32"
        },
        {
          "internalType": "uint256",
          "name": "_validFrom",
          "type": "uint256"
        },
        {
          "internalType": "uint256",
          "name": "_validTo",
          "type": "uint256"
        },
        {
          "internalType": "uint256",
          "name": "_drpPrice",
          "type": "uint256"
        },
        {
          "internalType": "address payable",
          "name": "_reactContract",
          "type": "address"
        },
        {
          "internalType": "uint8",
          "name": "_version",
          "type": "uint8"
        }
      ],
      "name": "registerDomain",
      "outputs": [],
      "stateMutability": "payable",
      "type": "function"
    },
    {
      "inputs": [
        {
          "internalType": "bytes32",
          "name": "_issuerName",
          "type": "bytes32"
        },
        {
          "internalType": "uint256",
          "name": "_validTo",
          "type": "uint256"
        }
      ],
      "name": "updateDomain",
      "outputs": [],
      "stateMutability": "payable",
      "type": "function"
    },
    {
      "inputs": [
        {
          "internalType": "address payable",
          "name": "_domainAddr",
          "type": "address"
        }
      ],
      "name": "purchaseDRP",
      "outputs": [],
      "stateMutability": "payable",
      "type": "function"
    },
    {
      "inputs": [
        {
          "internalType": "uint256",
          "name": "_drpIndex",
          "type": "uint256"
        },
        {
          "internalType": "bytes32[]",
          "name": "_sctLogID",
          "type": "bytes32[]"
        },
        {
          "internalType": "uint256[]",
          "name": "_sctTimestamp",
          "type": "uint256[]"
        },
        {
          "internalType": "uint256",
          "name": "_certValidFrom",
          "type": "uint256"
        },
        {
          "internalType": "uint256",
          "name": "_certValidTo",
          "type": "uint256"
        },
        {
          "internalType": "bytes32",
          "name": "_ocspRes",
          "type": "bytes32"
        }
      ],
      "name": "checkCertificate",
      "outputs": [],
      "stateMutability": "nonpayable",
      "type": "function"
    },
    {
      "inputs": [
        {
          "internalType": "address",
          "name": "_clientAddr",
          "type": "address"
        },
        {
          "internalType": "uint256",
          "name": "_drpIndex",
          "type": "uint256"
        }
      ],
      "name": "deleteDRPFromClientList",
      "outputs": [],
      "stateMutability": "nonpayable",
      "type": "function"
    },
    {
      "inputs": [],
      "name": "expireDRP",
      "outputs": [],
      "stateMutability": "nonpayable",
      "type": "function"
    },
    {
      "inputs": [],
      "name": "isClientRegistered",
      "outputs": [
        {
          "internalType": "bool",
          "name": "",
          "type": "bool"
        }
      ],
      "stateMutability": "view",
      "type": "function"
    },
    {
      "inputs": [],
      "name": "isDomainRegistered",
      "outputs": [
        {
          "internalType": "bool",
          "name": "",
          "type": "bool"
        }
      ],
      "stateMutability": "view",
      "type": "function"
    },
    {
      "inputs": [],
      "name": "getClientDetails",
      "outputs": [
        {
          "internalType": "bytes32",
          "name": "",
          "type": "bytes32"
        },
        {
          "internalType": "uint256",
          "name": "",
          "type": "uint256"
        },
        {
          "internalType": "uint256",
          "name": "",
          "type": "uint256"
        },
        {
          "internalType": "address",
          "name": "",
          "type": "address"
        },
        {
          "internalType": "address",
          "name": "",
          "type": "address"
        }
      ],
      "stateMutability": "view",
      "type": "function"
    },
    {
      "inputs": [],
      "name": "getDomainDetails",
      "outputs": [
        {
          "internalType": "bytes32",
          "name": "",
          "type": "bytes32"
        },
        {
          "internalType": "bytes32",
          "name": "",
          "type": "bytes32"
        },
        {
          "internalType": "uint256",
          "name": "",
          "type": "uint256"
        },
        {
          "internalType": "uint256",
          "name": "",
          "type": "uint256"
        },
        {
          "internalType": "uint256",
          "name": "",
          "type": "uint256"
        },
        {
          "internalType": "address",
          "name": "",
          "type": "address"
        },
        {
          "internalType": "address",
          "name": "",
          "type": "address"
        },
        {
          "internalType": "uint256",
          "name": "",
          "type": "uint256"
        }
      ],
      "stateMutability": "view",
      "type": "function"
    },
    {
      "inputs": [
        {
          "internalType": "uint256",
          "name": "_drpIndex",
          "type": "uint256"
        }
      ],
      "name": "getDRPDetails",
      "outputs": [
        {
          "internalType": "bytes32",
          "name": "",
          "type": "bytes32"
        },
        {
          "internalType": "uint256",
          "name": "",
          "type": "uint256"
        },
        {
          "internalType": "address",
          "name": "",
          "type": "address"
        }
      ],
      "stateMutability": "view",
      "type": "function"
    },
    {
      "inputs": [],
      "name": "getClientDRPListLength",
      "outputs": [
        {
          "internalType": "uint256",
          "name": "",
          "type": "uint256"
        }
      ],
      "stateMutability": "view",
      "type": "function"
    },
    {
      "inputs": [],
      "name": "getNumDRP",
      "outputs": [
        {
          "internalType": "uint256",
          "name": "",
          "type": "uint256"
        }
      ],
      "stateMutability": "view",
      "type": "function"
    },
    {
      "inputs": [
        {
          "internalType": "uint256",
          "name": "_drpIndex",
          "type": "uint256"
        }
      ],
      "name": "getClientDRPList",
      "outputs": [
        {
          "internalType": "bytes32",
          "name": "",
          "type": "bytes32"
        },
        {
          "internalType": "uint256",
          "name": "",
          "type": "uint256"
        },
        {
          "internalType": "uint256",
          "name": "",
          "type": "uint256"
        },
        {
          "internalType": "uint256",
          "name": "",
          "type": "uint256"
        },
        {
          "internalType": "uint256",
          "name": "",
          "type": "uint256"
        }
      ],
      "stateMutability": "view",
      "type": "function"
    },
    {
      "inputs": [],
      "name": "getCCPStatus",
      "outputs": [
        {
          "internalType": "bool",
          "name": "",
          "type": "bool"
        },
        {
          "internalType": "bool",
          "name": "",
          "type": "bool"
        }
      ],
      "stateMutability": "view",
      "type": "function"
    },
    {
      "inputs": [],
      "name": "getDRPStatus",
      "outputs": [
        {
          "internalType": "bool",
          "name": "",
          "type": "bool"
        },
        {
          "internalType": "bool",
          "name": "",
          "type": "bool"
        }
      ],
      "stateMutability": "view",
      "type": "function"
    }
  ],
  "bytecode": "0x60806040523480156200001157600080fd5b5060405162003c9738038062003c97833981810160405260208110156200003757600080fd5b81019080805160405193929190846401000000008211156200005857600080fd5b838201915060208201858111156200006f57600080fd5b82518660208202830111640100000000821117156200008d57600080fd5b8083526020830192505050908051906020019060200280838360005b83811015620000c6578082015181840152602081019050620000a9565b5050505090500160405250505033600160006101000a81548173ffffffffffffffffffffffffffffffffffffffff021916908373ffffffffffffffffffffffffffffffffffffffff16021790555060008090505b81518161ffff16101562000177576000828261ffff16815181106200013b57fe5b6020026020010151908060018154018082558091505060019003906000526020600020016000909190919091505580806001019150506200011a565b5050613b0e80620001896000396000f3fe6080604052600436106101855760003560e01c8063895860d4116100d1578063ce606ee01161008a578063eb86fb1d11610064578063eb86fb1d146108d1578063f344cc09146108fc578063f8f11f50146109b0578063ff49a2f1146109ff5761018c565b8063ce606ee014610760578063cf821ee5146107b7578063e1f7ced8146108565761018c565b8063895860d4146105f35780638ce9fdce1461062d578063a992da011461065c578063b00acd89146106df578063baf3be401461070a578063cd715f45146107355761018c565b80635faf9ff21161013e578063714b926011610118578063714b92601461047657806379cbf609146104b05780637e6752e81461053957806383ac3d5d146105885761018c565b80635faf9ff2146103ee57806365fab568146104195780636fab223c146104475761018c565b806304fb1b161461019157806311555e66146102945780633ad56b6c146102ab5780634a4c3c45146103065780634efa638a1461037557806351412b85146103aa5761018c565b3661018c57005b600080fd5b34801561019d57600080fd5b50610292600480360360c08110156101b457600080fd5b8101908080359060200190929190803590602001906401000000008111156101db57600080fd5b8201836020820111156101ed57600080fd5b8035906020019184602083028401116401000000008311171561020f57600080fd5b90919293919293908035906020019064010000000081111561023057600080fd5b82018360208201111561024257600080fd5b8035906020019184602083028401116401000000008311171561026457600080fd5b9091929391929390803590602001909291908035906020019092919080359060200190929190505050610a37565b005b3480156102a057600080fd5b506102a96112c2565b005b3480156102b757600080fd5b50610304600480360360408110156102ce57600080fd5b81019080803573ffffffffffffffffffffffffffffffffffffffff1690602001909291908035906020019092919050505061182c565b005b610373600480360360a081101561031c57600080fd5b81019080803590602001909291908035906020019092919080359060200190929190803573ffffffffffffffffffffffffffffffffffffffff169060200190929190803560ff169060200190929190505050611bc1565b005b34801561038157600080fd5b5061038a611fc8565b604051808262ffffff1662ffffff16815260200191505060405180910390f35b6103ec600480360360208110156103c057600080fd5b81019080803573ffffffffffffffffffffffffffffffffffffffff169060200190929190505050611fcf565b005b3480156103fa57600080fd5b50610403612441565b6040518082815260200191505060405180910390f35b6104456004803603602081101561042f57600080fd5b810190808035906020019092919050505061244c565b005b34801561045357600080fd5b5061045c6125b1565b604051808215151515815260200191505060405180910390f35b34801561048257600080fd5b5061048b612601565b6040518083151515158152602001821515151581526020019250505060405180910390f35b3480156104bc57600080fd5b506104e9600480360360208110156104d357600080fd5b8101908080359060200190929190505050612792565b604051808481526020018381526020018273ffffffffffffffffffffffffffffffffffffffff1673ffffffffffffffffffffffffffffffffffffffff168152602001935050505060405180910390f35b34801561054557600080fd5b506105726004803603602081101561055c57600080fd5b8101908080359060200190929190505050612a4f565b6040518082815260200191505060405180910390f35b34801561059457600080fd5b506105c1600480360360208110156105ab57600080fd5b8101908080359060200190929190505050612a70565b604051808681526020018581526020018481526020018381526020018281526020019550505050505060405180910390f35b3480156105ff57600080fd5b50610608612d2e565b6040518083151515158152602001821515151581526020019250505060405180910390f35b34801561063957600080fd5b50610642612eb5565b604051808215151515815260200191505060405180910390f35b6106dd600480360360e081101561067257600080fd5b810190808035906020019092919080359060200190929190803590602001909291908035906020019092919080359060200190929190803573ffffffffffffffffffffffffffffffffffffffff169060200190929190803560ff169060200190929190505050612f05565b005b3480156106eb57600080fd5b506106f4613370565b6040518082815260200191505060405180910390f35b34801561071657600080fd5b5061071f61337d565b6040518082815260200191505060405180910390f35b34801561074157600080fd5b5061074a6133ca565b6040518082815260200191505060405180910390f35b34801561076c57600080fd5b506107756133d5565b604051808273ffffffffffffffffffffffffffffffffffffffff1673ffffffffffffffffffffffffffffffffffffffff16815260200191505060405180910390f35b3480156107c357600080fd5b506107cc6133fb565b604051808681526020018581526020018481526020018373ffffffffffffffffffffffffffffffffffffffff1673ffffffffffffffffffffffffffffffffffffffff1681526020018273ffffffffffffffffffffffffffffffffffffffff1673ffffffffffffffffffffffffffffffffffffffff1681526020019550505050505060405180910390f35b34801561086257600080fd5b5061088f6004803603602081101561087957600080fd5b810190808035906020019092919050505061356f565b604051808273ffffffffffffffffffffffffffffffffffffffff1673ffffffffffffffffffffffffffffffffffffffff16815260200191505060405180910390f35b3480156108dd57600080fd5b506108e66135ab565b6040518082815260200191505060405180910390f35b34801561090857600080fd5b506109116135b6565b604051808981526020018881526020018781526020018681526020018581526020018473ffffffffffffffffffffffffffffffffffffffff1673ffffffffffffffffffffffffffffffffffffffff1681526020018373ffffffffffffffffffffffffffffffffffffffff1673ffffffffffffffffffffffffffffffffffffffff1681526020018281526020019850505050505050505060405180910390f35b3480156109bc57600080fd5b506109e9600480360360208110156109d357600080fd5b8101908080359060200190929190505050613790565b6040518082815260200191505060405180910390f35b610a3560048036036040811015610a1557600080fd5b8101908080359060200190929190803590602001909291905050506137a8565b005b610a3f613965565b600260003373ffffffffffffffffffffffffffffffffffffffff1673ffffffffffffffffffffffffffffffffffffffff1681526020019081526020016000206000016040518060c00160405290816000820154815260200160018201548152602001600282015481526020016003820160009054906101000a900473ffffffffffffffffffffffffffffffffffffffff1673ffffffffffffffffffffffffffffffffffffffff1673ffffffffffffffffffffffffffffffffffffffff1681526020016004820160009054906101000a900473ffffffffffffffffffffffffffffffffffffffff1673ffffffffffffffffffffffffffffffffffffffff1673ffffffffffffffffffffffffffffffffffffffff1681526020016004820160149054906101000a900460ff1660ff1660ff16815250509050610b7d6139cd565b60056000600260003373ffffffffffffffffffffffffffffffffffffffff1673ffffffffffffffffffffffffffffffffffffffff1681526020019081526020016000206005018c81548110610bce57fe5b9060005260206000200160009054906101000a900473ffffffffffffffffffffffffffffffffffffffff1673ffffffffffffffffffffffffffffffffffffffff1673ffffffffffffffffffffffffffffffffffffffff168152602001908152602001600020604051806060016040529081600082016040518060e0016040529081600082015481526020016001820154815260200160028201548152602001600382015481526020016004820160009054906101000a900473ffffffffffffffffffffffffffffffffffffffff1673ffffffffffffffffffffffffffffffffffffffff1673ffffffffffffffffffffffffffffffffffffffff1681526020016005820160009054906101000a900473ffffffffffffffffffffffffffffffffffffffff1673ffffffffffffffffffffffffffffffffffffffff1673ffffffffffffffffffffffffffffffffffffffff1681526020016005820160149054906101000a900460ff1660ff1660ff168152505081526020016006820154815260200160078201548152505090506000816000015160a00151905042836040015110158015610d8257504282600001516060015110155b8015610dc35750600073ffffffffffffffffffffffffffffffffffffffff16826000015160a0015173ffffffffffffffffffffffffffffffffffffffff1614155b610dcc57600080fd5b6000836080015173ffffffffffffffffffffffffffffffffffffffff1663bdebae908c8c8c8c8c8c8c6040518863ffffffff1660e01b815260040180806020018060200186815260200185815260200184815260200183810383528a8a82818152602001925060200280828437600081840152601f19601f8201169050808301925050508381038252888882818152602001925060200280828437600081840152601f19601f820116905080830192505050995050505050505050505060206040518083038186803b158015610ea157600080fd5b505afa158015610eb5573d6000803e3d6000fd5b505050506040513d6020811015610ecb57600080fd5b81019080805190602001909291905050509050806111a4578173ffffffffffffffffffffffffffffffffffffffff16635a84490f8460200151600960036040518463ffffffff1660e01b8152600401808481526020018360ff1660ff1681526020018260ff1660ff1681526020019350505050600060405180830381600087803b158015610f5857600080fd5b505af1158015610f6c573d6000803e3d6000fd5b505050506000600960ff16600a856020015181610f8557fe5b04029050610f9785606001518e61182c565b6000600360040360ff16856000015160400151866000015160600151034287600001516060015103600a886020015181610fcd57fe5b040281610fd657fe5b0402600360ff16600a876020015181610feb57fe5b040201905060006005600087600001516080015173ffffffffffffffffffffffffffffffffffffffff1673ffffffffffffffffffffffffffffffffffffffff16815260200190815260200160002060000160050160006101000a81548173ffffffffffffffffffffffffffffffffffffffff021916908373ffffffffffffffffffffffffffffffffffffffff160217905550806005600087600001516080015173ffffffffffffffffffffffffffffffffffffffff1673ffffffffffffffffffffffffffffffffffffffff168152602001908152602001600020600701600082825403925050819055503373ffffffffffffffffffffffffffffffffffffffff166108fc8284019081150290604051600060405180830381858888f1935050505015801561111d573d6000803e3d6000fd5b507f805833017904a645dc3ea62b2bc6d2c9c6c05975b7f954c58b6bf1c53554fc6b3386600001516000015185604051808473ffffffffffffffffffffffffffffffffffffffff1673ffffffffffffffffffffffffffffffffffffffff16815260200183815260200182151515158152602001935050505060405180910390a150506112b4565b4260026000866060015173ffffffffffffffffffffffffffffffffffffffff1673ffffffffffffffffffffffffffffffffffffffff168152602001908152602001600020600601600085600001516080015173ffffffffffffffffffffffffffffffffffffffff1673ffffffffffffffffffffffffffffffffffffffff168152602001908152602001600020819055507f805833017904a645dc3ea62b2bc6d2c9c6c05975b7f954c58b6bf1c53554fc6b3384600001516000015183604051808473ffffffffffffffffffffffffffffffffffffffff1673ffffffffffffffffffffffffffffffffffffffff16815260200183815260200182151515158152602001935050505060405180910390a15b505050505050505050505050565b600560003373ffffffffffffffffffffffffffffffffffffffff1673ffffffffffffffffffffffffffffffffffffffff16815260200190815260200160002060000160030154421161131357600080fd5b61131b6139cd565b600560003373ffffffffffffffffffffffffffffffffffffffff1673ffffffffffffffffffffffffffffffffffffffff168152602001908152602001600020604051806060016040529081600082016040518060e0016040529081600082015481526020016001820154815260200160028201548152602001600382015481526020016004820160009054906101000a900473ffffffffffffffffffffffffffffffffffffffff1673ffffffffffffffffffffffffffffffffffffffff1673ffffffffffffffffffffffffffffffffffffffff1681526020016005820160009054906101000a900473ffffffffffffffffffffffffffffffffffffffff1673ffffffffffffffffffffffffffffffffffffffff1673ffffffffffffffffffffffffffffffffffffffff1681526020016005820160149054906101000a900460ff1660ff1660ff168152505081526020016006820154815260200160078201548152505090506000600560003373ffffffffffffffffffffffffffffffffffffffff1673ffffffffffffffffffffffffffffffffffffffff168152602001908152602001600020600701549050600073ffffffffffffffffffffffffffffffffffffffff16826000015160a0015173ffffffffffffffffffffffffffffffffffffffff16146115b557816000015160a0015173ffffffffffffffffffffffffffffffffffffffff16635a84490f8360200151600960036040518463ffffffff1660e01b8152600401808481526020018360ff1660ff1681526020018260ff1660ff1681526020019350505050600060405180830381600087803b15801561158057600080fd5b505af1158015611594573d6000803e3d6000fd5b50505050600360090160ff16600a8360200151816115ae57fe5b0402810190505b6003600160038054905003815481106115ca57fe5b9060005260206000200160009054906101000a900473ffffffffffffffffffffffffffffffffffffffff166003600160046000866000015160000151815260200190815260200160002054038154811061162057fe5b9060005260206000200160006101000a81548173ffffffffffffffffffffffffffffffffffffffff021916908373ffffffffffffffffffffffffffffffffffffffff160217905550600560003373ffffffffffffffffffffffffffffffffffffffff1673ffffffffffffffffffffffffffffffffffffffff16815260200190815260200160002060008082016000808201600090556001820160009055600282016000905560038201600090556004820160006101000a81549073ffffffffffffffffffffffffffffffffffffffff02191690556005820160006101000a81549073ffffffffffffffffffffffffffffffffffffffff02191690556005820160146101000a81549060ff0219169055505060068201600090556007820160009055505060046000836000015160000151815260200190815260200160002060009055600380548061176d57fe5b6001900381819060005260206000200160006101000a81549073ffffffffffffffffffffffffffffffffffffffff021916905590553373ffffffffffffffffffffffffffffffffffffffff166108fc829081150290604051600060405180830381858888f193505050501580156117e8573d6000803e3d6000fd5b507fb2cd4b0157fbd9041b8031c7a22ee552f50798b693b6bd085752cc6bbe00b70f8260000151600001516040518082815260200191505060405180910390a15050565b6000600260008473ffffffffffffffffffffffffffffffffffffffff1673ffffffffffffffffffffffffffffffffffffffff16815260200190815260200160002060000160000154141561187f57600080fd5b6000600260008473ffffffffffffffffffffffffffffffffffffffff1673ffffffffffffffffffffffffffffffffffffffff1681526020019081526020016000206005018054905090506000600260008573ffffffffffffffffffffffffffffffffffffffff1673ffffffffffffffffffffffffffffffffffffffff168152602001908152602001600020600501838154811061191857fe5b9060005260206000200160009054906101000a900473ffffffffffffffffffffffffffffffffffffffff169050600260008573ffffffffffffffffffffffffffffffffffffffff1673ffffffffffffffffffffffffffffffffffffffff168152602001908152602001600020600501600183038154811061199557fe5b9060005260206000200160009054906101000a900473ffffffffffffffffffffffffffffffffffffffff16600260008673ffffffffffffffffffffffffffffffffffffffff1673ffffffffffffffffffffffffffffffffffffffff1681526020019081526020016000206005018481548110611a0d57fe5b9060005260206000200160006101000a81548173ffffffffffffffffffffffffffffffffffffffff021916908373ffffffffffffffffffffffffffffffffffffffff160217905550600260008573ffffffffffffffffffffffffffffffffffffffff1673ffffffffffffffffffffffffffffffffffffffff168152602001908152602001600020600501805480611aa057fe5b6001900381819060005260206000200160006101000a81549073ffffffffffffffffffffffffffffffffffffffff02191690559055600260008573ffffffffffffffffffffffffffffffffffffffff1673ffffffffffffffffffffffffffffffffffffffff16815260200190815260200160002060060160008273ffffffffffffffffffffffffffffffffffffffff1673ffffffffffffffffffffffffffffffffffffffff168152602001908152602001600020600090557fde5fb2ff7ad4160296947d1a8c93d6226db4bb2a067acab6db279dbbfc8c8e4681604051808273ffffffffffffffffffffffffffffffffffffffff1673ffffffffffffffffffffffffffffffffffffffff16815260200191505060405180910390a150505050565b6000600260003373ffffffffffffffffffffffffffffffffffffffff1673ffffffffffffffffffffffffffffffffffffffff16815260200190815260200160002060000160000154148015611c17575060008514155b8015611c2257508383115b8015611d1657508173ffffffffffffffffffffffffffffffffffffffff166388d8840b33846040518363ffffffff1660e01b8152600401808373ffffffffffffffffffffffffffffffffffffffff1673ffffffffffffffffffffffffffffffffffffffff1681526020018273ffffffffffffffffffffffffffffffffffffffff1673ffffffffffffffffffffffffffffffffffffffff1681526020019250505060206040518083038186803b158015611cda57600080fd5b505afa158015611cee573d6000803e3d6000fd5b505050506040513d6020811015611d0457600080fd5b81019080805190602001909291905050505b8015611d28575066038d7ea4c6800034145b611d3157600080fd5b6040518060c001604052808681526020018581526020018481526020013373ffffffffffffffffffffffffffffffffffffffff1681526020018373ffffffffffffffffffffffffffffffffffffffff1681526020018260ff16815250600260003373ffffffffffffffffffffffffffffffffffffffff1673ffffffffffffffffffffffffffffffffffffffff16815260200190815260200160002060000160008201518160000155602082015181600101556040820151816002015560608201518160030160006101000a81548173ffffffffffffffffffffffffffffffffffffffff021916908373ffffffffffffffffffffffffffffffffffffffff16021790555060808201518160040160006101000a81548173ffffffffffffffffffffffffffffffffffffffff021916908373ffffffffffffffffffffffffffffffffffffffff16021790555060a08201518160040160146101000a81548160ff021916908360ff1602179055509050508173ffffffffffffffffffffffffffffffffffffffff16632d9a18b06000620151806040518363ffffffff1660e01b815260040180806020018362ffffff1662ffffff1681526020018281038252848181548152602001915080548015611f2557602002820191906000526020600020905b815481526020019060010190808311611f11575b50509350505050600060405180830381600087803b158015611f4657600080fd5b505af1158015611f5a573d6000803e3d6000fd5b505050507f2d3734a8e47ac8316e500ac231c90a6e1848ca2285f40d07eaa52005e4b3a0e933604051808273ffffffffffffffffffffffffffffffffffffffff1673ffffffffffffffffffffffffffffffffffffffff16815260200191505060405180910390a15050505050565b6201518081565b611fd76139cd565b600560008373ffffffffffffffffffffffffffffffffffffffff1673ffffffffffffffffffffffffffffffffffffffff168152602001908152602001600020604051806060016040529081600082016040518060e0016040529081600082015481526020016001820154815260200160028201548152602001600382015481526020016004820160009054906101000a900473ffffffffffffffffffffffffffffffffffffffff1673ffffffffffffffffffffffffffffffffffffffff1673ffffffffffffffffffffffffffffffffffffffff1681526020016005820160009054906101000a900473ffffffffffffffffffffffffffffffffffffffff1673ffffffffffffffffffffffffffffffffffffffff1673ffffffffffffffffffffffffffffffffffffffff1681526020016005820160149054906101000a900460ff1660ff1660ff168152505081526020016006820154815260200160078201548152505090506000600260003373ffffffffffffffffffffffffffffffffffffffff1673ffffffffffffffffffffffffffffffffffffffff16815260200190815260200160002060000160000154141580156121c75750600073ffffffffffffffffffffffffffffffffffffffff16816000015160a0015173ffffffffffffffffffffffffffffffffffffffff1614155b80156121d65750806020015134145b6121df57600080fd5b600260003373ffffffffffffffffffffffffffffffffffffffff1673ffffffffffffffffffffffffffffffffffffffff168152602001908152602001600020600501829080600181540180825580915050600190039060005260206000200160009091909190916101000a81548173ffffffffffffffffffffffffffffffffffffffff021916908373ffffffffffffffffffffffffffffffffffffffff1602179055506001600260003373ffffffffffffffffffffffffffffffffffffffff1673ffffffffffffffffffffffffffffffffffffffff16815260200190815260200160002060060160008473ffffffffffffffffffffffffffffffffffffffff1673ffffffffffffffffffffffffffffffffffffffff168152602001908152602001600020819055506000600360046009010160ff16600360ff16606484602001518161232757fe5b040202905080600560008573ffffffffffffffffffffffffffffffffffffffff1673ffffffffffffffffffffffffffffffffffffffff168152602001908152602001600020600701600082825401925050819055508273ffffffffffffffffffffffffffffffffffffffff166108fc828460200151039081150290604051600060405180830381858888f193505050501580156123c8573d6000803e3d6000fd5b507f473e7e6c0f1c40084458ea3b48b9bfe7013dcd4c8e0e2f91d728c04aa24a379a33836000015160000151604051808373ffffffffffffffffffffffffffffffffffffffff1673ffffffffffffffffffffffffffffffffffffffff1681526020018281526020019250505060405180910390a1505050565b662386f26fc1000081565b6000600260003373ffffffffffffffffffffffffffffffffffffffff1673ffffffffffffffffffffffffffffffffffffffff16815260200190815260200160002060000160000154141580156124e65750600260003373ffffffffffffffffffffffffffffffffffffffff1673ffffffffffffffffffffffffffffffffffffffff1681526020019081526020016000206000016001015481115b80156124f8575066038d7ea4c6800034145b61250157600080fd5b80600260003373ffffffffffffffffffffffffffffffffffffffff1673ffffffffffffffffffffffffffffffffffffffff168152602001908152602001600020600001600201819055507fe00da2178806f37f69815e9ed5ed3072ec1d55206d60916d99b469c7daa421e433604051808273ffffffffffffffffffffffffffffffffffffffff1673ffffffffffffffffffffffffffffffffffffffff16815260200191505060405180910390a150565b600080600560003373ffffffffffffffffffffffffffffffffffffffff1673ffffffffffffffffffffffffffffffffffffffff168152602001908152602001600020600001600001541415905090565b60008061260c6139f4565b600560003373ffffffffffffffffffffffffffffffffffffffff1673ffffffffffffffffffffffffffffffffffffffff1681526020019081526020016000206000016040518060e0016040529081600082015481526020016001820154815260200160028201548152602001600382015481526020016004820160009054906101000a900473ffffffffffffffffffffffffffffffffffffffff1673ffffffffffffffffffffffffffffffffffffffff1673ffffffffffffffffffffffffffffffffffffffff1681526020016005820160009054906101000a900473ffffffffffffffffffffffffffffffffffffffff1673ffffffffffffffffffffffffffffffffffffffff1673ffffffffffffffffffffffffffffffffffffffff1681526020016005820160149054906101000a900460ff1660ff1660ff168152505090504281606001511015600073ffffffffffffffffffffffffffffffffffffffff168260a0015173ffffffffffffffffffffffffffffffffffffffff16141592509250509091565b600080600061279f6139cd565b60056000600387815481106127b057fe5b9060005260206000200160009054906101000a900473ffffffffffffffffffffffffffffffffffffffff1673ffffffffffffffffffffffffffffffffffffffff1673ffffffffffffffffffffffffffffffffffffffff168152602001908152602001600020604051806060016040529081600082016040518060e0016040529081600082015481526020016001820154815260200160028201548152602001600382015481526020016004820160009054906101000a900473ffffffffffffffffffffffffffffffffffffffff1673ffffffffffffffffffffffffffffffffffffffff1673ffffffffffffffffffffffffffffffffffffffff1681526020016005820160009054906101000a900473ffffffffffffffffffffffffffffffffffffffff1673ffffffffffffffffffffffffffffffffffffffff1673ffffffffffffffffffffffffffffffffffffffff1681526020016005820160149054906101000a900460ff1660ff1660ff1681525050815260200160068201548152602001600782015481525050905042816000015160600151101580156129885750600073ffffffffffffffffffffffffffffffffffffffff16816000015160a0015173ffffffffffffffffffffffffffffffffffffffff1614155b8015612a1b57506000600260003373ffffffffffffffffffffffffffffffffffffffff1673ffffffffffffffffffffffffffffffffffffffff168152602001908152602001600020600601600083600001516080015173ffffffffffffffffffffffffffffffffffffffff1673ffffffffffffffffffffffffffffffffffffffff16815260200190815260200160002054145b15612a4657806000015160000151816020015182600001516080015180905093509350935050612a48565b505b9193909250565b60008181548110612a5c57fe5b906000526020600020016000915090505481565b6000806000806000612a806139cd565b60056000600260003373ffffffffffffffffffffffffffffffffffffffff1673ffffffffffffffffffffffffffffffffffffffff1681526020019081526020016000206005018981548110612ad157fe5b9060005260206000200160009054906101000a900473ffffffffffffffffffffffffffffffffffffffff1673ffffffffffffffffffffffffffffffffffffffff1673ffffffffffffffffffffffffffffffffffffffff168152602001908152602001600020604051806060016040529081600082016040518060e0016040529081600082015481526020016001820154815260200160028201548152602001600382015481526020016004820160009054906101000a900473ffffffffffffffffffffffffffffffffffffffff1673ffffffffffffffffffffffffffffffffffffffff1673ffffffffffffffffffffffffffffffffffffffff1681526020016005820160009054906101000a900473ffffffffffffffffffffffffffffffffffffffff1673ffffffffffffffffffffffffffffffffffffffff1673ffffffffffffffffffffffffffffffffffffffff1681526020016005820160149054906101000a900460ff1660ff1660ff168152505081526020016006820154815260200160078201548152505090504281600001516060015110612d23578060000151600001518160000151604001518260000151606001518360200151600260003373ffffffffffffffffffffffffffffffffffffffff1673ffffffffffffffffffffffffffffffffffffffff168152602001908152602001600020600601600086600001516080015173ffffffffffffffffffffffffffffffffffffffff1673ffffffffffffffffffffffffffffffffffffffff168152602001908152602001600020549550955095509550955050612d25565b505b91939590929450565b600080612d39613965565b600260003373ffffffffffffffffffffffffffffffffffffffff1673ffffffffffffffffffffffffffffffffffffffff1681526020019081526020016000206000016040518060c00160405290816000820154815260200160018201548152602001600282015481526020016003820160009054906101000a900473ffffffffffffffffffffffffffffffffffffffff1673ffffffffffffffffffffffffffffffffffffffff1673ffffffffffffffffffffffffffffffffffffffff1681526020016004820160009054906101000a900473ffffffffffffffffffffffffffffffffffffffff1673ffffffffffffffffffffffffffffffffffffffff1673ffffffffffffffffffffffffffffffffffffffff1681526020016004820160149054906101000a900460ff1660ff1660ff168152505090504281604001511015600073ffffffffffffffffffffffffffffffffffffffff16826080015173ffffffffffffffffffffffffffffffffffffffff16141592509250509091565b600080600260003373ffffffffffffffffffffffffffffffffffffffff1673ffffffffffffffffffffffffffffffffffffffff168152602001908152602001600020600001600001541415905090565b60006004600089815260200190815260200160002054148015612f29575060008714155b8015612f36575060008614155b8015612f4157508484115b801561303557508173ffffffffffffffffffffffffffffffffffffffff1663a4618a9933846040518363ffffffff1660e01b8152600401808373ffffffffffffffffffffffffffffffffffffffff1673ffffffffffffffffffffffffffffffffffffffff1681526020018273ffffffffffffffffffffffffffffffffffffffff1673ffffffffffffffffffffffffffffffffffffffff1681526020019250505060206040518083038186803b158015612ff957600080fd5b505afa15801561300d573d6000803e3d6000fd5b505050506040513d602081101561302357600080fd5b81019080805190602001909291905050505b801561305c5750600360090160ff16600a848161304e57fe5b0402662386f26fc100000134145b61306557600080fd5b6040518060e001604052808881526020018781526020018681526020018581526020013373ffffffffffffffffffffffffffffffffffffffff1681526020018373ffffffffffffffffffffffffffffffffffffffff1681526020018260ff16815250600560003373ffffffffffffffffffffffffffffffffffffffff1673ffffffffffffffffffffffffffffffffffffffff1681526020019081526020016000206000016000820151816000015560208201518160010155604082015181600201556060820151816003015560808201518160040160006101000a81548173ffffffffffffffffffffffffffffffffffffffff021916908373ffffffffffffffffffffffffffffffffffffffff16021790555060a08201518160050160006101000a81548173ffffffffffffffffffffffffffffffffffffffff021916908373ffffffffffffffffffffffffffffffffffffffff16021790555060c08201518160050160146101000a81548160ff021916908360ff16021790555090505082600560003373ffffffffffffffffffffffffffffffffffffffff1673ffffffffffffffffffffffffffffffffffffffff168152602001908152602001600020600601819055506003339080600181540180825580915050600190039060005260206000200160009091909190916101000a81548173ffffffffffffffffffffffffffffffffffffffff021916908373ffffffffffffffffffffffffffffffffffffffff16021790555060038054905060046000898152602001908152602001600020819055508173ffffffffffffffffffffffffffffffffffffffff166108fc600360090160ff16600a86816132d657fe5b04029081150290604051600060405180830381858888f19350505050158015613303573d6000803e3d6000fd5b507f2d3734a8e47ac8316e500ac231c90a6e1848ca2285f40d07eaa52005e4b3a0e933604051808273ffffffffffffffffffffffffffffffffffffffff1673ffffffffffffffffffffffffffffffffffffffff16815260200191505060405180910390a150505050505050565b6000600380549050905090565b6000600260003373ffffffffffffffffffffffffffffffffffffffff1673ffffffffffffffffffffffffffffffffffffffff16815260200190815260200160002060050180549050905090565b66038d7ea4c6800081565b600160009054906101000a900473ffffffffffffffffffffffffffffffffffffffff1681565b600080600080600061340b613965565b600260003373ffffffffffffffffffffffffffffffffffffffff1673ffffffffffffffffffffffffffffffffffffffff1681526020019081526020016000206000016040518060c00160405290816000820154815260200160018201548152602001600282015481526020016003820160009054906101000a900473ffffffffffffffffffffffffffffffffffffffff1673ffffffffffffffffffffffffffffffffffffffff1673ffffffffffffffffffffffffffffffffffffffff1681526020016004820160009054906101000a900473ffffffffffffffffffffffffffffffffffffffff1673ffffffffffffffffffffffffffffffffffffffff1673ffffffffffffffffffffffffffffffffffffffff1681526020016004820160149054906101000a900460ff1660ff1660ff168152505090508060000151816020015182604001518360600151846080015181915095509550955095509550509091929394565b6003818154811061357c57fe5b906000526020600020016000915054906101000a900473ffffffffffffffffffffffffffffffffffffffff1681565b66038d7ea4c6800081565b6000806000806000806000806135ca6139cd565b600560003373ffffffffffffffffffffffffffffffffffffffff1673ffffffffffffffffffffffffffffffffffffffff168152602001908152602001600020604051806060016040529081600082016040518060e0016040529081600082015481526020016001820154815260200160028201548152602001600382015481526020016004820160009054906101000a900473ffffffffffffffffffffffffffffffffffffffff1673ffffffffffffffffffffffffffffffffffffffff1673ffffffffffffffffffffffffffffffffffffffff1681526020016005820160009054906101000a900473ffffffffffffffffffffffffffffffffffffffff1673ffffffffffffffffffffffffffffffffffffffff1673ffffffffffffffffffffffffffffffffffffffff1681526020016005820160149054906101000a900460ff1660ff1660ff168152505081526020016006820154815260200160078201548152505090508060000151600001518160000151602001518260000151604001518360000151606001518460200151856000015160800151866000015160a00151876040015182925081915098509850985098509850985098509850509091929394959697565b60046020528060005260406000206000915090505481565b6000600560003373ffffffffffffffffffffffffffffffffffffffff1673ffffffffffffffffffffffffffffffffffffffff16815260200190815260200160002060000160000154141580156137ff575060008214155b801561384f5750600560003373ffffffffffffffffffffffffffffffffffffffff1673ffffffffffffffffffffffffffffffffffffffff1681526020019081526020016000206000016002015481115b8015613861575066038d7ea4c6800034145b61386a57600080fd5b81600560003373ffffffffffffffffffffffffffffffffffffffff1673ffffffffffffffffffffffffffffffffffffffff1681526020019081526020016000206000016001018190555080600560003373ffffffffffffffffffffffffffffffffffffffff1673ffffffffffffffffffffffffffffffffffffffff168152602001908152602001600020600001600301819055507fe00da2178806f37f69815e9ed5ed3072ec1d55206d60916d99b469c7daa421e433604051808273ffffffffffffffffffffffffffffffffffffffff1673ffffffffffffffffffffffffffffffffffffffff16815260200191505060405180910390a15050565b6040518060c00160405280600080191681526020016000815260200160008152602001600073ffffffffffffffffffffffffffffffffffffffff168152602001600073ffffffffffffffffffffffffffffffffffffffff168152602001600060ff1681525090565b60405180606001604052806139e0613a66565b815260200160008152602001600081525090565b6040518060e0016040528060008019168152602001600080191681526020016000815260200160008152602001600073ffffffffffffffffffffffffffffffffffffffff168152602001600073ffffffffffffffffffffffffffffffffffffffff168152602001600060ff1681525090565b6040518060e0016040528060008019168152602001600080191681526020016000815260200160008152602001600073ffffffffffffffffffffffffffffffffffffffff168152602001600073ffffffffffffffffffffffffffffffffffffffff168152602001600060ff168152509056fea2646970667358221220a47c404f46fcc87bec33202dbfb27fe31bd0c3f4f25fe7706c9e4325171d82de64736f6c63430006010033",
  "source": "// SPDX-License-Identifier: MIT\r\n/*\r\nThis is a smart contract to implement the functionality of Decentralised Domain Authentication on Ethereum blockchain.\r\nAuthors : Mohammed Sufiyan Aman, Riyanchhi Agrawal, Shakshi Pandey, Shehyaaz Khan Nayazi\r\n*/\r\n\r\npragma solidity ^0.6.0;\r\n\r\nimport \"./CheckAbstract.sol\";\r\nimport \"./DRPAbstract.sol\";\r\n\r\ncontract DDA {\r\n    \r\n    /* the log ID of the CT logs trusted by DDA are stored in ctLogsID array */\r\n    bytes32[] public ctLogIDs;\r\n    uint24 public constant maximum_merge_delay = 86400;\r\n    /* contract owner address */\r\n    address payable public contractOwner;\r\n    \r\n    /* Parameters used to determine various payments in this contract.\r\n       The common denominator for all parameters is 10\r\n    */\r\n    uint8 constant private escrow = 3; // escrow parameter(alpha) = 30% (NOTE: escrow parameter > 25 % given the below set of parameters)\r\n    uint8 constant private termination_parameter = 3; // termination parameter(delta) = 30% \r\n    uint8 constant private internal_misbehaviour = 9; // internal misbehaviour payment(mi) = 90%\r\n    uint8 constant private contract_fund_payment = 3; // contract fund payment(f) = 30%\r\n    uint8 constant private termination_payment = 4; // termination payment(t) = 40%\r\n    uint8 constant private total_funds = internal_misbehaviour + termination_payment + contract_fund_payment;\r\n    uint256 constant public client_registration_fee = 0.001 ether;\r\n    uint256 constant public domain_registration_fee = 0.01 ether;\r\n    uint256 constant public update_fee = 0.001 ether;\r\n\r\n    /* Client Check Policy definition */\r\n    struct CCP {\r\n        bytes32 clientName;\r\n        uint256 validFrom;\r\n        uint256 validTo;\r\n        address payable clientAddress;\r\n        address checkContract;\r\n        uint8 version;\r\n    }\r\n    \r\n    /* Domain Reaction Policy definition */\r\n    struct DRP {\r\n        bytes32 domainName;\r\n        bytes32 issuerName;\r\n        uint256 validFrom;\r\n        uint256 validTo;\r\n        address payable domainAddress;\r\n        address payable reactContract;\r\n        uint8 version;\r\n    }\r\n    \r\n    struct Client {\r\n        CCP ccp;\r\n        address[] purchasedDRP; // list of domain addresses whose DRP has been purchased\r\n        mapping(address => uint256) lastChecked;\r\n    }\r\n    \r\n    struct Domain {\r\n        DRP drp;\r\n        uint256 drpPrice;\r\n        uint256 escrowedAmount;\r\n    }\r\n    \r\n    /* an associative array of clients registered in the system */\r\n    mapping(address => Client) clients;\r\n    \r\n    /* an array of domains registered in the system */\r\n    address[] public registeredDomains;\r\n    mapping(bytes32 => uint256) public registeredDomainNames;\r\n    mapping(address => Domain) domains;\r\n    \r\n    \r\n    /* events for various operations */\r\n    event Registered(address _addr);\r\n    event Updated(address _addr);\r\n    event DRPpurchased(address _clientAddr, bytes32 _domainName);\r\n    event CertChecked(address _clientAddr, bytes32 _domainName, bool _certValid);\r\n    event DRPExpired(bytes32 _domainName);\r\n    event DRPDeleted(address _domainAddr);\r\n    \r\n    constructor(bytes32[] memory _ctLogIDs) public {\r\n        contractOwner = msg.sender;\r\n        for(uint16 i = 0; i < _ctLogIDs.length; i++){\r\n            ctLogIDs.push(_ctLogIDs[i]);\r\n        }\r\n    }\r\n    \r\n    // this fallback function allows the contract to receive ether\r\n    receive() external payable{\r\n        \r\n    }\r\n    \r\n    function registerClient(\r\n        bytes32 _name,\r\n        uint256 _validFrom,\r\n        uint256 _validTo,\r\n        address _checkContract,\r\n        uint8 _version\r\n    ) external payable{\r\n        require(clients[msg.sender].ccp.clientName == \"\" &&\r\n            _name != \"\" && \r\n            _validTo > _validFrom && \r\n            CheckAbstract(_checkContract).verifyCCP(msg.sender, _checkContract) &&\r\n            msg.value == client_registration_fee\r\n        );\r\n        \r\n        clients[msg.sender].ccp = CCP(_name, _validFrom, _validTo, msg.sender, _checkContract, _version);\r\n        // pass CT logs to Check Contract\r\n        CheckAbstract(_checkContract).setCTLogs(ctLogIDs, maximum_merge_delay);\r\n        \r\n        emit Registered(msg.sender);\r\n    }\r\n    \r\n    function updateClient(\r\n        uint256 _validTo\r\n    ) external payable{\r\n        require(clients[msg.sender].ccp.clientName != \"\" &&\r\n            _validTo > clients[msg.sender].ccp.validFrom &&\r\n            msg.value == update_fee\r\n        );\r\n        \r\n        clients[msg.sender].ccp.validTo = _validTo;\r\n        \r\n        emit Updated(msg.sender);\r\n    }\r\n    \r\n    function registerDomain(\r\n        bytes32 _domainName,\r\n        bytes32 _issuerName,\r\n        uint256 _validFrom,\r\n        uint256 _validTo,\r\n        uint256 _drpPrice,\r\n        address payable _reactContract,\r\n        uint8 _version\r\n    ) external payable{\r\n        require(registeredDomainNames[_domainName] == 0 &&\r\n            _domainName != \"\" &&\r\n            _issuerName != \"\" &&\r\n            _validTo > _validFrom &&\r\n            DRPAbstract(_reactContract).verifyDRP(msg.sender, _reactContract) &&\r\n            msg.value == (domain_registration_fee + (_drpPrice/10)*(internal_misbehaviour + contract_fund_payment))\r\n        );\r\n        \r\n        domains[msg.sender].drp = DRP(_domainName, _issuerName, _validFrom, _validTo, msg.sender, _reactContract, _version);\r\n        domains[msg.sender].drpPrice = _drpPrice;\r\n        registeredDomains.push(msg.sender);\r\n        registeredDomainNames[_domainName] = registeredDomains.length; // add domain name to list of registered addresses\r\n\r\n        // tranfer (_drpPrice/10)*(internal_misbehaviour + contract_fund_payment ether to _reactContract, this is to ensure the _reactContract has sufficient balance\r\n        _reactContract.transfer((_drpPrice/10)*(internal_misbehaviour + contract_fund_payment));\r\n        \r\n        emit Registered(msg.sender);\r\n    }\r\n    \r\n    function updateDomain(\r\n        bytes32 _issuerName,\r\n        uint256 _validTo\r\n    ) external payable{\r\n        require(domains[msg.sender].drp.domainName != \"\" &&\r\n            _issuerName != \"\" &&\r\n            _validTo > domains[msg.sender].drp.validFrom &&\r\n            msg.value == update_fee\r\n        );\r\n        \r\n        domains[msg.sender].drp.issuerName = _issuerName;\r\n        domains[msg.sender].drp.validTo = _validTo;\r\n        \r\n        emit Updated(msg.sender);\r\n    }\r\n    \r\n    function purchaseDRP(address payable _domainAddr) external payable {\r\n        Domain memory domain = domains[_domainAddr];\r\n        require(clients[msg.sender].ccp.clientName != \"\" &&\r\n            domain.drp.reactContract != address(0) &&\r\n            msg.value == domain.drpPrice\r\n        );\r\n        \r\n        // add DRP to client drp list\r\n        clients[msg.sender].purchasedDRP.push(_domainAddr);\r\n        clients[msg.sender].lastChecked[_domainAddr] = 1; // this indicates that the DRP was purchased, but is not checked\r\n        \r\n        // transfer amount to domain address in DRP\r\n        uint256 escrowAmount = (domain.drpPrice/100) * escrow * total_funds;\r\n        domains[_domainAddr].escrowedAmount += escrowAmount;\r\n        _domainAddr.transfer(domain.drpPrice - escrowAmount);\r\n        \r\n        emit DRPpurchased(msg.sender, domain.drp.domainName);\r\n    }\r\n    \r\n    function checkCertificate(\r\n        uint256 _drpIndex,\r\n        bytes32[] calldata _sctLogID,\r\n        uint256[] calldata _sctTimestamp,\r\n        uint256 _certValidFrom,\r\n        uint256 _certValidTo,\r\n        bytes32 _ocspRes\r\n    ) external {\r\n        CCP memory ccp = clients[msg.sender].ccp;\r\n        Domain memory domain = domains[clients[msg.sender].purchasedDRP[_drpIndex]];\r\n        DRPAbstract reactContract = DRPAbstract(domain.drp.reactContract);\r\n        require(ccp.validTo >= now &&\r\n            domain.drp.validTo >= now &&\r\n            domain.drp.reactContract != address(0)\r\n        );\r\n        \r\n        bool status = CheckAbstract(ccp.checkContract).check(_sctLogID, _sctTimestamp, _certValidFrom, _certValidTo, _ocspRes);\r\n        if(!status){ // invalid certificate detected\r\n            reactContract.trigger(\r\n                domain.drpPrice,\r\n                internal_misbehaviour,\r\n                contract_fund_payment\r\n            );\r\n            uint256 misbehaviour_payment = (domain.drpPrice / 10)*internal_misbehaviour;\r\n            \r\n            // delete drp from drpList\r\n            deleteDRPFromClientList(ccp.clientAddress, _drpIndex);\r\n\r\n            // terminate DRP\r\n            uint256 termination_payment_client = (domain.drpPrice/10)*(termination_parameter) +\r\n                    ((domain.drpPrice/10)*(domain.drp.validTo - now)/(domain.drp.validTo - domain.drp.validFrom))*(termination_payment - termination_parameter);\r\n            \r\n            // set reaction contract to empty address\r\n            domains[domain.drp.domainAddress].drp.reactContract = address(0);\r\n            \r\n            // reduce domain's escrowed amount\r\n            domains[domain.drp.domainAddress].escrowedAmount -= termination_payment_client;\r\n            // transfer ether to client\r\n            msg.sender.transfer(misbehaviour_payment + termination_payment_client);\r\n            \r\n            emit CertChecked(msg.sender, domain.drp.domainName, status);\r\n        }\r\n        else{\r\n            clients[ccp.clientAddress].lastChecked[domain.drp.domainAddress] = now;\r\n            emit CertChecked(msg.sender, domain.drp.domainName, status);\r\n        }\r\n    }\r\n    \r\n    /* delete DRP from client DRP list */\r\n    function deleteDRPFromClientList(address _clientAddr, uint256 _drpIndex) public{\r\n        require(clients[_clientAddr].ccp.clientName != \"\");\r\n        \r\n        uint256 drpListLength = clients[_clientAddr].purchasedDRP.length;\r\n        address domainAddr = clients[_clientAddr].purchasedDRP[_drpIndex];\r\n        clients[_clientAddr].purchasedDRP[_drpIndex] = clients[_clientAddr].purchasedDRP[drpListLength - 1];\r\n        clients[_clientAddr].purchasedDRP.pop(); // pop last element of array\r\n        delete clients[_clientAddr].lastChecked[domainAddr];\r\n\r\n        emit DRPDeleted(domainAddr);\r\n    }\r\n    \r\n    /* function to expire DRP and delete it */\r\n    function expireDRP() external{\r\n        require(now > domains[msg.sender].drp.validTo); // Domain can expire DRP only after DRP validity has ended\r\n        Domain memory domain = domains[msg.sender];\r\n        // transfer escrowed amount to domain\r\n        uint256 escrowAmount = domains[msg.sender].escrowedAmount;\r\n\r\n        if(domain.drp.reactContract != address(0)){\r\n            // domains DRP has not been triggered by client\r\n            DRPAbstract(domain.drp.reactContract).trigger(\r\n                domain.drpPrice,\r\n                internal_misbehaviour,\r\n                contract_fund_payment\r\n            );\r\n            escrowAmount = escrowAmount + (domain.drpPrice / 10)*(internal_misbehaviour + contract_fund_payment);\r\n        }\r\n        \r\n        // delete DRP from domains\r\n        registeredDomains[registeredDomainNames[domain.drp.domainName] - 1] = registeredDomains[registeredDomains.length - 1];\r\n        delete domains[msg.sender];\r\n        delete registeredDomainNames[domain.drp.domainName];\r\n        registeredDomains.pop(); // pop last element of array \r\n        msg.sender.transfer(escrowAmount);\r\n    \r\n        emit DRPExpired(domain.drp.domainName);\r\n    }\r\n    \r\n    /* Getter functions */\r\n    \r\n    function isClientRegistered() external view returns(bool){\r\n        return clients[msg.sender].ccp.clientName != \"\";\r\n    }\r\n    \r\n    function isDomainRegistered() external view returns(bool){\r\n        return domains[msg.sender].drp.domainName != \"\";\r\n    }\r\n    \r\n    /* get client details */\r\n    function getClientDetails() external view returns(bytes32, uint256, uint256, address, address){\r\n        CCP memory ccp = clients[msg.sender].ccp;\r\n        return (\r\n            ccp.clientName,\r\n            ccp.validFrom,\r\n            ccp.validTo,\r\n            ccp.clientAddress,\r\n            ccp.checkContract\r\n        );\r\n    }\r\n    \r\n    /* get domain details */\r\n    function getDomainDetails() external view returns(bytes32, bytes32, uint256, uint256, uint256, address, address, uint256){\r\n        Domain memory domain = domains[msg.sender];\r\n        return (\r\n            domain.drp.domainName,\r\n            domain.drp.issuerName,\r\n            domain.drp.validFrom,\r\n            domain.drp.validTo,\r\n            domain.drpPrice,\r\n            domain.drp.domainAddress,\r\n            domain.drp.reactContract,\r\n            domain.escrowedAmount\r\n        );\r\n    }\r\n    \r\n    /* get details needed to purchase a DRP */\r\n    function getDRPDetails(uint256 _drpIndex) external view returns(bytes32, uint256, address){\r\n        Domain memory domain = domains[registeredDomains[_drpIndex]];\r\n        if(domain.drp.validTo >= now && domain.drp.reactContract != address(0) && clients[msg.sender].lastChecked[domain.drp.domainAddress] == 0)\r\n            return (\r\n              domain.drp.domainName,\r\n              domain.drpPrice,\r\n              domain.drp.domainAddress\r\n            );\r\n    }\r\n    \r\n    /* get client drp list length */\r\n    function getClientDRPListLength() external view returns(uint256){\r\n        return clients[msg.sender].purchasedDRP.length;\r\n    }\r\n\r\n    /* get number of registered domains */\r\n    function getNumDRP() external view returns(uint256){\r\n        return registeredDomains.length;\r\n    }\r\n    \r\n    /* get client DRP list details */\r\n    function getClientDRPList(uint256 _drpIndex) external view returns(bytes32, uint256, uint256, uint256, uint256){\r\n        Domain memory domain = domains[clients[msg.sender].purchasedDRP[_drpIndex]];\r\n        if(domain.drp.validTo >= now) // return those DRPs that are still valid\r\n            return (\r\n                domain.drp.domainName,\r\n                domain.drp.validFrom,\r\n                domain.drp.validTo,\r\n                domain.drpPrice,\r\n                clients[msg.sender].lastChecked[domain.drp.domainAddress]\r\n            );\r\n    }\r\n    \r\n    /* get CCP status */\r\n    function getCCPStatus() external view returns(bool, bool){\r\n        CCP memory ccp = clients[msg.sender].ccp;\r\n        return (ccp.validTo >= now, ccp.checkContract != address(0)) ;\r\n    }\r\n    \r\n    /* get DRP status */\r\n    function getDRPStatus() external view returns(bool, bool){\r\n        DRP memory drp = domains[msg.sender].drp;\r\n        return (drp.validTo >= now, drp.reactContract != address(0));\r\n    }\r\n}",
  "sourcePath": "C:/Users/snayazi/Documents/Final-Year-Project-DDA/code/contracts/DDA.sol",
  "compiler": {
    "name": "solc",
    "version": "0.6.1+commit.e6f7d5a4.Emscripten.clang"
  },
  "schemaVersion": "3.4.1",
  "updatedAt": "2021-06-13T09:35:05.943Z",
  "devdoc": {
    "methods": {}
  },
  "userdoc": {
    "methods": {}
  }
}