{
  "contractName": "DRPReaction",
  "abi": [
    {
      "constant": false,
      "inputs": [],
      "name": "trigger",
      "outputs": [],
      "payable": false,
      "stateMutability": "nonpayable",
      "type": "function"
    }
  ],
  "bytecode": "0x6080604052336000806101000a81548173ffffffffffffffffffffffffffffffffffffffff021916908373ffffffffffffffffffffffffffffffffffffffff16021790555061013f806100536000396000f3fe608060405234801561001057600080fd5b506004361061002b5760003560e01c80637fec8d3814610030575b600080fd5b61003861003a565b005b3373ffffffffffffffffffffffffffffffffffffffff166000809054906101000a900473ffffffffffffffffffffffffffffffffffffffff1673ffffffffffffffffffffffffffffffffffffffff1614156100e0576040517f08c379a00000000000000000000000000000000000000000000000000000000081526004018080602001828103825260288152602001806100e36028913960400191505060405180910390fd5b56fe436f6e7472616374206f776e65722063616e6e6f742063616c6c20746869732066756e6374696f6ea265627a7a723158206807ae620bf7699cdb92850345b8bba9d0b6ada1cf229c20886516da06f7ab2c64736f6c63430005100032",
  "source": "/*\r\nThis is a smart contract that implements the TriggerInterface in Decentralised Domain Authentication on Ethereum blockchain.\r\nAuthors : Mohammed Sufiyan Aman, Riyanchhi Agrawal, Shakshi Pandey, Shehyaaz Khan Nayazi\r\n*/\r\n\r\npragma solidity ^0.5.0;\r\n\r\nimport \"./DRPReactionInterface.sol\";\r\n\r\ncontract DRPReaction is DRPReactionInterface {\r\n    function trigger() public notOwner{\r\n        // TODO : to be implemented\r\n    }\r\n}\r\n",
  "sourcePath": "C:/Users/snayazi/Documents/Final-Year-Project-DDA/code/contracts/DRPReaction.sol",
  "compiler": {
    "name": "solc",
    "version": "0.5.16+commit.9c3226ce.Emscripten.clang"
  },
  "schemaVersion": "3.3.4",
  "updatedAt": "2021-05-03T17:38:58.220Z",
  "networkType": "ethereum",
  "devdoc": {
    "methods": {}
  },
  "userdoc": {
    "methods": {}
  }
}