{
  "contractName": "DRPReaction",
  "abi": [
    {
      "inputs": [
        {
          "internalType": "uint256",
          "name": "_drpPrice",
          "type": "uint256"
        },
        {
          "internalType": "uint8",
          "name": "internal_misbehaviour",
          "type": "uint8"
        },
        {
          "internalType": "uint8",
          "name": "contract_fund_payment",
          "type": "uint8"
        }
      ],
      "name": "trigger",
      "outputs": [],
      "stateMutability": "nonpayable",
      "type": "function"
    },
    {
      "stateMutability": "payable",
      "type": "receive"
    },
    {
      "inputs": [
        {
          "internalType": "address",
          "name": "_domainAddr",
          "type": "address"
        },
        {
          "internalType": "address",
          "name": "_drpAddr",
          "type": "address"
        }
      ],
      "name": "verifyDRP",
      "outputs": [
        {
          "internalType": "bool",
          "name": "",
          "type": "bool"
        }
      ],
      "stateMutability": "view",
      "type": "function"
    }
  ],
  "bytecode": "0x6080604052336000806101000a81548173ffffffffffffffffffffffffffffffffffffffff021916908373ffffffffffffffffffffffffffffffffffffffff160217905550610289806100536000396000f3fe60806040526004361061002d5760003560e01c80635a84490f14610039578063a4618a991461008e57610034565b3661003457005b600080fd5b34801561004557600080fd5b5061008c6004803603606081101561005c57600080fd5b8101908080359060200190929190803560ff169060200190929190803560ff169060200190929190505050610117565b005b34801561009a57600080fd5b506100fd600480360360408110156100b157600080fd5b81019080803573ffffffffffffffffffffffffffffffffffffffff169060200190929190803573ffffffffffffffffffffffffffffffffffffffff1690602001909291905050506101e1565b604051808215151515815260200191505060405180910390f35b3373ffffffffffffffffffffffffffffffffffffffff166000809054906101000a900473ffffffffffffffffffffffffffffffffffffffff1673ffffffffffffffffffffffffffffffffffffffff16141561017157600080fd5b600081830160ff16600a858161018357fe5b040290508047101561019457600080fd5b3373ffffffffffffffffffffffffffffffffffffffff166108fc829081150290604051600060405180830381858888f193505050501580156101da573d6000803e3d6000fd5b5050505050565b60003073ffffffffffffffffffffffffffffffffffffffff168273ffffffffffffffffffffffffffffffffffffffff1614801561024b5750600073ffffffffffffffffffffffffffffffffffffffff168373ffffffffffffffffffffffffffffffffffffffff1614155b90509291505056fea2646970667358221220b1e78f611ccf4bddfcfce9a56152ee6d8e74e205734eb175eab57517763a541b64736f6c63430006010033",
  "source": "// SPDX-License-Identifier: MIT\r\n/*\r\nThis is a smart contract that implements the TriggerInterface in Decentralised Domain Authentication on Ethereum blockchain.\r\nAuthors : Mohammed Sufiyan Aman, Riyanchhi Agrawal, Shakshi Pandey, Shehyaaz Khan Nayazi\r\n*/\r\n\r\npragma solidity ^0.6.0;\r\n\r\nimport \"./DRPAbstract.sol\";\r\n\r\ncontract DRPReaction is DRPAbstract {\r\n    /* Overrides function of DRPAbstract */\r\n     function verifyDRP(\r\n        address _domainAddr,\r\n        address _drpAddr\r\n     ) external view override returns(bool){\r\n         return (_drpAddr == address(this) && _domainAddr != address(0));\r\n     }\r\n}\r\n",
  "sourcePath": "C:/Users/snayazi/Documents/Final-Year-Project-DDA/code/contracts/DRPReaction.sol",
  "compiler": {
    "name": "solc",
    "version": "0.6.1+commit.e6f7d5a4.Emscripten.clang"
  },
  "schemaVersion": "3.4.1",
  "updatedAt": "2021-06-13T09:23:32.879Z",
  "devdoc": {
    "methods": {}
  },
  "userdoc": {
    "methods": {}
  }
}